{
  "_format": "hh-sol-artifact-1",
  "contractName": "DeBridgeHandler",
  "sourceName": "contracts/DeBridgeHandler.sol",
  "abi": [
    {
      "inputs": [
        {
          "internalType": "address",
          "name": "_gate",
          "type": "address"
        }
      ],
      "stateMutability": "nonpayable",
      "type": "constructor"
    },
    {
      "anonymous": false,
      "inputs": [
        {
          "indexed": true,
          "internalType": "address",
          "name": "previousOwner",
          "type": "address"
        },
        {
          "indexed": true,
          "internalType": "address",
          "name": "newOwner",
          "type": "address"
        }
      ],
      "name": "OwnershipTransferred",
      "type": "event"
    },
    {
      "anonymous": false,
      "inputs": [
        {
          "indexed": true,
          "internalType": "address",
          "name": "token",
          "type": "address"
        },
        {
          "indexed": true,
          "internalType": "address",
          "name": "from",
          "type": "address"
        },
        {
          "indexed": true,
          "internalType": "address",
          "name": "to",
          "type": "address"
        },
        {
          "indexed": false,
          "internalType": "uint256",
          "name": "amount",
          "type": "uint256"
        },
        {
          "indexed": false,
          "internalType": "uint256",
          "name": "chainId",
          "type": "uint256"
        },
        {
          "indexed": false,
          "internalType": "bytes32",
          "name": "transactionId",
          "type": "bytes32"
        }
      ],
      "name": "TokenTransferCompleted",
      "type": "event"
    },
    {
      "anonymous": false,
      "inputs": [
        {
          "indexed": true,
          "internalType": "address",
          "name": "token",
          "type": "address"
        },
        {
          "indexed": true,
          "internalType": "address",
          "name": "from",
          "type": "address"
        },
        {
          "indexed": true,
          "internalType": "address",
          "name": "to",
          "type": "address"
        },
        {
          "indexed": false,
          "internalType": "uint256",
          "name": "amount",
          "type": "uint256"
        },
        {
          "indexed": false,
          "internalType": "uint256",
          "name": "chainId",
          "type": "uint256"
        },
        {
          "indexed": false,
          "internalType": "bytes32",
          "name": "transactionId",
          "type": "bytes32"
        }
      ],
      "name": "TokenTransferInitiated",
      "type": "event"
    },
    {
      "inputs": [
        {
          "internalType": "address",
          "name": "token",
          "type": "address"
        }
      ],
      "name": "addSupportedToken",
      "outputs": [],
      "stateMutability": "nonpayable",
      "type": "function"
    },
    {
      "inputs": [
        {
          "internalType": "address",
          "name": "token",
          "type": "address"
        },
        {
          "internalType": "address",
          "name": "from",
          "type": "address"
        },
        {
          "internalType": "address",
          "name": "to",
          "type": "address"
        },
        {
          "internalType": "uint256",
          "name": "amount",
          "type": "uint256"
        },
        {
          "internalType": "uint256",
          "name": "sourceChainId",
          "type": "uint256"
        },
        {
          "internalType": "bytes32",
          "name": "transactionId",
          "type": "bytes32"
        }
      ],
      "name": "completeTransfer",
      "outputs": [],
      "stateMutability": "nonpayable",
      "type": "function"
    },
    {
      "inputs": [],
      "name": "gate",
      "outputs": [
        {
          "internalType": "address",
          "name": "",
          "type": "address"
        }
      ],
      "stateMutability": "view",
      "type": "function"
    },
    {
      "inputs": [
        {
          "internalType": "address",
          "name": "token",
          "type": "address"
        },
        {
          "internalType": "address",
          "name": "to",
          "type": "address"
        },
        {
          "internalType": "uint256",
          "name": "amount",
          "type": "uint256"
        },
        {
          "internalType": "uint256",
          "name": "targetChainId",
          "type": "uint256"
        }
      ],
      "name": "initiateTransfer",
      "outputs": [],
      "stateMutability": "nonpayable",
      "type": "function"
    },
    {
      "inputs": [],
      "name": "owner",
      "outputs": [
        {
          "internalType": "address",
          "name": "",
          "type": "address"
        }
      ],
      "stateMutability": "view",
      "type": "function"
    },
    {
      "inputs": [
        {
          "internalType": "bytes32",
          "name": "",
          "type": "bytes32"
        }
      ],
      "name": "processedTransactions",
      "outputs": [
        {
          "internalType": "bool",
          "name": "",
          "type": "bool"
        }
      ],
      "stateMutability": "view",
      "type": "function"
    },
    {
      "inputs": [
        {
          "internalType": "address",
          "name": "token",
          "type": "address"
        }
      ],
      "name": "removeSupportedToken",
      "outputs": [],
      "stateMutability": "nonpayable",
      "type": "function"
    },
    {
      "inputs": [],
      "name": "renounceOwnership",
      "outputs": [],
      "stateMutability": "nonpayable",
      "type": "function"
    },
    {
      "inputs": [
        {
          "internalType": "address",
          "name": "_gate",
          "type": "address"
        }
      ],
      "name": "setGate",
      "outputs": [],
      "stateMutability": "nonpayable",
      "type": "function"
    },
    {
      "inputs": [
        {
          "internalType": "address",
          "name": "",
          "type": "address"
        }
      ],
      "name": "supportedTokens",
      "outputs": [
        {
          "internalType": "bool",
          "name": "",
          "type": "bool"
        }
      ],
      "stateMutability": "view",
      "type": "function"
    },
    {
      "inputs": [
        {
          "internalType": "address",
          "name": "newOwner",
          "type": "address"
        }
      ],
      "name": "transferOwnership",
      "outputs": [],
      "stateMutability": "nonpayable",
      "type": "function"
    }
  ],
  "bytecode": "0x608060405234801561001057600080fd5b5060405161099638038061099683398101604081905261002f916100ad565b6100383361005d565b600180546001600160a01b0319166001600160a01b03929092169190911790556100dd565b600080546001600160a01b038381166001600160a01b0319831681178455604051919092169283917f8be0079c531659141344cd1fd0a4f28419497f9722a3daafe3b4186f6b6457e09190a35050565b6000602082840312156100bf57600080fd5b81516001600160a01b03811681146100d657600080fd5b9392505050565b6108aa806100ec6000396000f3fe608060405234801561001057600080fd5b50600436106100a95760003560e01c80637a0ebc88116100715780637a0ebc881461012957806388315a40146101545780638da5cb5b1461016757806399472c3314610178578063ac2e49361461018b578063f2fde38b146101ae57600080fd5b806316734263146100ae57806368c4ac26146100c35780636d69fcaf146100fb578063715018a61461010e5780637631919014610116575b600080fd5b6100c16100bc366004610776565b6101c1565b005b6100e66100d13660046107d5565b60026020526000908152604090205460ff1681565b60405190151581526020015b60405180910390f35b6100c16101093660046107d5565b6103c6565b6100c16103f2565b6100c16101243660046107d5565b610406565b60015461013c906001600160a01b031681565b6040516001600160a01b0390911681526020016100f2565b6100c16101623660046107d5565b61042f565b6000546001600160a01b031661013c565b6100c16101863660046107f7565b610459565b6100e6610199366004610839565b60036020526000908152604090205460ff1681565b6100c16101bc3660046107d5565b610637565b6001546001600160a01b031633146102205760405162461bcd60e51b815260206004820152601f60248201527f4f6e6c7920676174652063616e20636f6d706c657465207472616e736665720060448201526064015b60405180910390fd5b60008181526003602052604090205460ff161561027f5760405162461bcd60e51b815260206004820152601d60248201527f5472616e73616374696f6e20616c72656164792070726f6365737365640000006044820152606401610217565b6001600160a01b03861660009081526002602052604090205460ff166102dd5760405162461bcd60e51b8152602060048201526013602482015272151bdad95b881b9bdd081cdd5c1c1bdc9d1959606a1b6044820152606401610217565b60008181526003602052604090819020805460ff191660011790555163a9059cbb60e01b81526001600160a01b0385811660048301526024820185905287169063a9059cbb906044016020604051808303816000875af1158015610345573d6000803e3d6000fd5b505050506040513d601f19601f820116820180604052508101906103699190610852565b5060408051848152602081018490529081018290526001600160a01b0380861691878216918916907fcdd1aef9d50408739c9982fb3eaff3cc69376a48c1b59738f9a1226c0c11b2669060600160405180910390a4505050505050565b6103ce6106b0565b6001600160a01b03166000908152600260205260409020805460ff19166001179055565b6103fa6106b0565b610404600061070a565b565b61040e6106b0565b6001600160a01b03166000908152600260205260409020805460ff19169055565b6104376106b0565b600180546001600160a01b0319166001600160a01b0392909216919091179055565b6001600160a01b03841660009081526002602052604090205460ff166104b75760405162461bcd60e51b8152602060048201526013602482015272151bdad95b881b9bdd081cdd5c1c1bdc9d1959606a1b6044820152606401610217565b600082116105075760405162461bcd60e51b815260206004820152601d60248201527f416d6f756e74206d7573742062652067726561746572207468616e20300000006044820152606401610217565b6040516323b872dd60e01b8152336004820152306024820152604481018390526001600160a01b038516906323b872dd906064016020604051808303816000875af115801561055a573d6000803e3d6000fd5b505050506040513d601f19601f8201168201806040525081019061057e9190610852565b506040516bffffffffffffffffffffffff19606086811b8216602084015233811b8216603484015285901b166048820152605c8101839052607c810182905242609c82015260009060bc0160408051601f19818403018152828252805160209182012086845290830185905290820181905291506001600160a01b038086169133918816907f1fba291b28c75d45d3613324d6261c26625c03e64933cdcb2ef694d0cf6c6d6a9060600160405180910390a45050505050565b61063f6106b0565b6001600160a01b0381166106a45760405162461bcd60e51b815260206004820152602660248201527f4f776e61626c653a206e6577206f776e657220697320746865207a65726f206160448201526564647265737360d01b6064820152608401610217565b6106ad8161070a565b50565b6000546001600160a01b031633146104045760405162461bcd60e51b815260206004820181905260248201527f4f776e61626c653a2063616c6c6572206973206e6f7420746865206f776e65726044820152606401610217565b600080546001600160a01b038381166001600160a01b0319831681178455604051919092169283917f8be0079c531659141344cd1fd0a4f28419497f9722a3daafe3b4186f6b6457e09190a35050565b80356001600160a01b038116811461077157600080fd5b919050565b60008060008060008060c0878903121561078f57600080fd5b6107988761075a565b95506107a66020880161075a565b94506107b46040880161075a565b9350606087013592506080870135915060a087013590509295509295509295565b6000602082840312156107e757600080fd5b6107f08261075a565b9392505050565b6000806000806080858703121561080d57600080fd5b6108168561075a565b93506108246020860161075a565b93969395505050506040820135916060013590565b60006020828403121561084b57600080fd5b5035919050565b60006020828403121561086457600080fd5b815180151581146107f057600080fdfea2646970667358221220445df30e04cede8ea22729547f6947b617c7fdb67f9bd3b7adec4f18bf87e04b64736f6c63430008140033",
  "linkReferences": {},
  "deployedLinkReferences": {}
}