{
  "_format": "hh-sol-artifact-1",
  "contractName": "DeBridgeHandler",
  "sourceName": "contracts/DeBridgeHandler.sol",
  "abi": [
    {
      "inputs": [
        {
          "internalType": "address",
          "name": "_gate",
          "type": "address"
        }
      ],
      "stateMutability": "nonpayable",
      "type": "constructor"
    },
    {
      "inputs": [
        {
          "internalType": "address",
          "name": "owner",
          "type": "address"
        }
      ],
      "name": "OwnableInvalidOwner",
      "type": "error"
    },
    {
      "inputs": [
        {
          "internalType": "address",
          "name": "account",
          "type": "address"
        }
      ],
      "name": "OwnableUnauthorizedAccount",
      "type": "error"
    },
    {
      "anonymous": false,
      "inputs": [
        {
          "indexed": true,
          "internalType": "address",
          "name": "previousOwner",
          "type": "address"
        },
        {
          "indexed": true,
          "internalType": "address",
          "name": "newOwner",
          "type": "address"
        }
      ],
      "name": "OwnershipTransferred",
      "type": "event"
    },
    {
      "anonymous": false,
      "inputs": [
        {
          "indexed": true,
          "internalType": "address",
          "name": "token",
          "type": "address"
        },
        {
          "indexed": true,
          "internalType": "address",
          "name": "from",
          "type": "address"
        },
        {
          "indexed": true,
          "internalType": "address",
          "name": "to",
          "type": "address"
        },
        {
          "indexed": false,
          "internalType": "uint256",
          "name": "amount",
          "type": "uint256"
        },
        {
          "indexed": false,
          "internalType": "uint256",
          "name": "chainId",
          "type": "uint256"
        },
        {
          "indexed": false,
          "internalType": "bytes32",
          "name": "transactionId",
          "type": "bytes32"
        }
      ],
      "name": "TokenTransferCompleted",
      "type": "event"
    },
    {
      "anonymous": false,
      "inputs": [
        {
          "indexed": true,
          "internalType": "address",
          "name": "token",
          "type": "address"
        },
        {
          "indexed": true,
          "internalType": "address",
          "name": "from",
          "type": "address"
        },
        {
          "indexed": true,
          "internalType": "address",
          "name": "to",
          "type": "address"
        },
        {
          "indexed": false,
          "internalType": "uint256",
          "name": "amount",
          "type": "uint256"
        },
        {
          "indexed": false,
          "internalType": "uint256",
          "name": "chainId",
          "type": "uint256"
        },
        {
          "indexed": false,
          "internalType": "bytes32",
          "name": "transactionId",
          "type": "bytes32"
        }
      ],
      "name": "TokenTransferInitiated",
      "type": "event"
    },
    {
      "inputs": [
        {
          "internalType": "address",
          "name": "token",
          "type": "address"
        }
      ],
      "name": "addSupportedToken",
      "outputs": [],
      "stateMutability": "nonpayable",
      "type": "function"
    },
    {
      "inputs": [
        {
          "internalType": "address",
          "name": "token",
          "type": "address"
        },
        {
          "internalType": "address",
          "name": "from",
          "type": "address"
        },
        {
          "internalType": "address",
          "name": "to",
          "type": "address"
        },
        {
          "internalType": "uint256",
          "name": "amount",
          "type": "uint256"
        },
        {
          "internalType": "uint256",
          "name": "sourceChainId",
          "type": "uint256"
        },
        {
          "internalType": "bytes32",
          "name": "transactionId",
          "type": "bytes32"
        }
      ],
      "name": "completeTransfer",
      "outputs": [],
      "stateMutability": "nonpayable",
      "type": "function"
    },
    {
      "inputs": [],
      "name": "gate",
      "outputs": [
        {
          "internalType": "address",
          "name": "",
          "type": "address"
        }
      ],
      "stateMutability": "view",
      "type": "function"
    },
    {
      "inputs": [
        {
          "internalType": "address",
          "name": "token",
          "type": "address"
        },
        {
          "internalType": "address",
          "name": "to",
          "type": "address"
        },
        {
          "internalType": "uint256",
          "name": "amount",
          "type": "uint256"
        },
        {
          "internalType": "uint256",
          "name": "targetChainId",
          "type": "uint256"
        }
      ],
      "name": "initiateTransfer",
      "outputs": [],
      "stateMutability": "nonpayable",
      "type": "function"
    },
    {
      "inputs": [],
      "name": "owner",
      "outputs": [
        {
          "internalType": "address",
          "name": "",
          "type": "address"
        }
      ],
      "stateMutability": "view",
      "type": "function"
    },
    {
      "inputs": [
        {
          "internalType": "bytes32",
          "name": "",
          "type": "bytes32"
        }
      ],
      "name": "processedTransactions",
      "outputs": [
        {
          "internalType": "bool",
          "name": "",
          "type": "bool"
        }
      ],
      "stateMutability": "view",
      "type": "function"
    },
    {
      "inputs": [
        {
          "internalType": "address",
          "name": "token",
          "type": "address"
        }
      ],
      "name": "removeSupportedToken",
      "outputs": [],
      "stateMutability": "nonpayable",
      "type": "function"
    },
    {
      "inputs": [],
      "name": "renounceOwnership",
      "outputs": [],
      "stateMutability": "nonpayable",
      "type": "function"
    },
    {
      "inputs": [
        {
          "internalType": "address",
          "name": "_gate",
          "type": "address"
        }
      ],
      "name": "setGate",
      "outputs": [],
      "stateMutability": "nonpayable",
      "type": "function"
    },
    {
      "inputs": [
        {
          "internalType": "address",
          "name": "",
          "type": "address"
        }
      ],
      "name": "supportedTokens",
      "outputs": [
        {
          "internalType": "bool",
          "name": "",
          "type": "bool"
        }
      ],
      "stateMutability": "view",
      "type": "function"
    },
    {
      "inputs": [
        {
          "internalType": "address",
          "name": "newOwner",
          "type": "address"
        }
      ],
      "name": "transferOwnership",
      "outputs": [],
      "stateMutability": "nonpayable",
      "type": "function"
    }
  ],
  "bytecode": "0x60806040523480156200001157600080fd5b506040516200134638038062001346833981810160405281019062000037919062000235565b33600073ffffffffffffffffffffffffffffffffffffffff168173ffffffffffffffffffffffffffffffffffffffff1603620000ad5760006040517f1e4fbdf7000000000000000000000000000000000000000000000000000000008152600401620000a4919062000278565b60405180910390fd5b620000be816200010760201b60201c565b5080600160006101000a81548173ffffffffffffffffffffffffffffffffffffffff021916908373ffffffffffffffffffffffffffffffffffffffff1602179055505062000295565b60008060009054906101000a900473ffffffffffffffffffffffffffffffffffffffff169050816000806101000a81548173ffffffffffffffffffffffffffffffffffffffff021916908373ffffffffffffffffffffffffffffffffffffffff1602179055508173ffffffffffffffffffffffffffffffffffffffff168173ffffffffffffffffffffffffffffffffffffffff167f8be0079c531659141344cd1fd0a4f28419497f9722a3daafe3b4186f6b6457e060405160405180910390a35050565b600080fd5b600073ffffffffffffffffffffffffffffffffffffffff82169050919050565b6000620001fd82620001d0565b9050919050565b6200020f81620001f0565b81146200021b57600080fd5b50565b6000815190506200022f8162000204565b92915050565b6000602082840312156200024e576200024d620001cb565b5b60006200025e848285016200021e565b91505092915050565b6200027281620001f0565b82525050565b60006020820190506200028f600083018462000267565b92915050565b6110a180620002a56000396000f3fe608060405234801561001057600080fd5b50600436106100a95760003560e01c80637a0ebc88116100715780637a0ebc881461013c57806388315a401461015a5780638da5cb5b1461017657806399472c3314610194578063ac2e4936146101b0578063f2fde38b146101e0576100a9565b806316734263146100ae57806368c4ac26146100ca5780636d69fcaf146100fa578063715018a6146101165780637631919014610120575b600080fd5b6100c860048036038101906100c39190610b15565b6101fc565b005b6100e460048036038101906100df9190610ba2565b6104ac565b6040516100f19190610bea565b60405180910390f35b610114600480360381019061010f9190610ba2565b6104cc565b005b61011e61052f565b005b61013a60048036038101906101359190610ba2565b610543565b005b6101446105a6565b6040516101519190610c14565b60405180910390f35b610174600480360381019061016f9190610ba2565b6105cc565b005b61017e610618565b60405161018b9190610c14565b60405180910390f35b6101ae60048036038101906101a99190610c2f565b610641565b005b6101ca60048036038101906101c59190610c96565b61084d565b6040516101d79190610bea565b60405180910390f35b6101fa60048036038101906101f59190610ba2565b61086d565b005b600160009054906101000a900473ffffffffffffffffffffffffffffffffffffffff1673ffffffffffffffffffffffffffffffffffffffff163373ffffffffffffffffffffffffffffffffffffffff161461028c576040517f08c379a000000000000000000000000000000000000000000000000000000000815260040161028390610d20565b60405180910390fd5b6003600082815260200190815260200160002060009054906101000a900460ff16156102ed576040517f08c379a00000000000000000000000000000000000000000000000000000000081526004016102e490610d8c565b60405180910390fd5b600260008773ffffffffffffffffffffffffffffffffffffffff1673ffffffffffffffffffffffffffffffffffffffff16815260200190815260200160002060009054906101000a900460ff16610379576040517f08c379a000000000000000000000000000000000000000000000000000000000815260040161037090610df8565b60405180910390fd5b60016003600083815260200190815260200160002060006101000a81548160ff0219169083151502179055508573ffffffffffffffffffffffffffffffffffffffff1663a9059cbb85856040518363ffffffff1660e01b81526004016103e0929190610e27565b6020604051808303816000875af11580156103ff573d6000803e3d6000fd5b505050506040513d601f19601f820116820180604052508101906104239190610e7c565b508373ffffffffffffffffffffffffffffffffffffffff168573ffffffffffffffffffffffffffffffffffffffff168773ffffffffffffffffffffffffffffffffffffffff167fcdd1aef9d50408739c9982fb3eaff3cc69376a48c1b59738f9a1226c0c11b26686868660405161049c93929190610eb8565b60405180910390a4505050505050565b60026020528060005260406000206000915054906101000a900460ff1681565b6104d46108f3565b6001600260008373ffffffffffffffffffffffffffffffffffffffff1673ffffffffffffffffffffffffffffffffffffffff16815260200190815260200160002060006101000a81548160ff02191690831515021790555050565b6105376108f3565b610541600061097a565b565b61054b6108f3565b6000600260008373ffffffffffffffffffffffffffffffffffffffff1673ffffffffffffffffffffffffffffffffffffffff16815260200190815260200160002060006101000a81548160ff02191690831515021790555050565b600160009054906101000a900473ffffffffffffffffffffffffffffffffffffffff1681565b6105d46108f3565b80600160006101000a81548173ffffffffffffffffffffffffffffffffffffffff021916908373ffffffffffffffffffffffffffffffffffffffff16021790555050565b60008060009054906101000a900473ffffffffffffffffffffffffffffffffffffffff16905090565b600260008573ffffffffffffffffffffffffffffffffffffffff1673ffffffffffffffffffffffffffffffffffffffff16815260200190815260200160002060009054906101000a900460ff166106cd576040517f08c379a00000000000000000000000000000000000000000000000000000000081526004016106c490610df8565b60405180910390fd5b60008211610710576040517f08c379a000000000000000000000000000000000000000000000000000000000815260040161070790610f3b565b60405180910390fd5b8373ffffffffffffffffffffffffffffffffffffffff166323b872dd3330856040518463ffffffff1660e01b815260040161074d93929190610f5b565b6020604051808303816000875af115801561076c573d6000803e3d6000fd5b505050506040513d601f19601f820116820180604052508101906107909190610e7c565b5060008433858585426040516020016107ae96959493929190610ffb565b6040516020818303038152906040528051906020012090508373ffffffffffffffffffffffffffffffffffffffff163373ffffffffffffffffffffffffffffffffffffffff168673ffffffffffffffffffffffffffffffffffffffff167f1fba291b28c75d45d3613324d6261c26625c03e64933cdcb2ef694d0cf6c6d6a86868660405161083e93929190610eb8565b60405180910390a45050505050565b60036020528060005260406000206000915054906101000a900460ff1681565b6108756108f3565b600073ffffffffffffffffffffffffffffffffffffffff168173ffffffffffffffffffffffffffffffffffffffff16036108e75760006040517f1e4fbdf70000000000000000000000000000000000000000000000000000000081526004016108de9190610c14565b60405180910390fd5b6108f08161097a565b50565b6108fb610a3e565b73ffffffffffffffffffffffffffffffffffffffff16610919610618565b73ffffffffffffffffffffffffffffffffffffffff16146109785761093c610a3e565b6040517f118cdaa700000000000000000000000000000000000000000000000000000000815260040161096f9190610c14565b60405180910390fd5b565b60008060009054906101000a900473ffffffffffffffffffffffffffffffffffffffff169050816000806101000a81548173ffffffffffffffffffffffffffffffffffffffff021916908373ffffffffffffffffffffffffffffffffffffffff1602179055508173ffffffffffffffffffffffffffffffffffffffff168173ffffffffffffffffffffffffffffffffffffffff167f8be0079c531659141344cd1fd0a4f28419497f9722a3daafe3b4186f6b6457e060405160405180910390a35050565b600033905090565b600080fd5b600073ffffffffffffffffffffffffffffffffffffffff82169050919050565b6000610a7682610a4b565b9050919050565b610a8681610a6b565b8114610a9157600080fd5b50565b600081359050610aa381610a7d565b92915050565b6000819050919050565b610abc81610aa9565b8114610ac757600080fd5b50565b600081359050610ad981610ab3565b92915050565b6000819050919050565b610af281610adf565b8114610afd57600080fd5b50565b600081359050610b0f81610ae9565b92915050565b60008060008060008060c08789031215610b3257610b31610a46565b5b6000610b4089828a01610a94565b9650506020610b5189828a01610a94565b9550506040610b6289828a01610a94565b9450506060610b7389828a01610aca565b9350506080610b8489828a01610aca565b92505060a0610b9589828a01610b00565b9150509295509295509295565b600060208284031215610bb857610bb7610a46565b5b6000610bc684828501610a94565b91505092915050565b60008115159050919050565b610be481610bcf565b82525050565b6000602082019050610bff6000830184610bdb565b92915050565b610c0e81610a6b565b82525050565b6000602082019050610c296000830184610c05565b92915050565b60008060008060808587031215610c4957610c48610a46565b5b6000610c5787828801610a94565b9450506020610c6887828801610a94565b9350506040610c7987828801610aca565b9250506060610c8a87828801610aca565b91505092959194509250565b600060208284031215610cac57610cab610a46565b5b6000610cba84828501610b00565b91505092915050565b600082825260208201905092915050565b7f4f6e6c7920676174652063616e20636f6d706c657465207472616e7366657200600082015250565b6000610d0a601f83610cc3565b9150610d1582610cd4565b602082019050919050565b60006020820190508181036000830152610d3981610cfd565b9050919050565b7f5472616e73616374696f6e20616c72656164792070726f636573736564000000600082015250565b6000610d76601d83610cc3565b9150610d8182610d40565b602082019050919050565b60006020820190508181036000830152610da581610d69565b9050919050565b7f546f6b656e206e6f7420737570706f7274656400000000000000000000000000600082015250565b6000610de2601383610cc3565b9150610ded82610dac565b602082019050919050565b60006020820190508181036000830152610e1181610dd5565b9050919050565b610e2181610aa9565b82525050565b6000604082019050610e3c6000830185610c05565b610e496020830184610e18565b9392505050565b610e5981610bcf565b8114610e6457600080fd5b50565b600081519050610e7681610e50565b92915050565b600060208284031215610e9257610e91610a46565b5b6000610ea084828501610e67565b91505092915050565b610eb281610adf565b82525050565b6000606082019050610ecd6000830186610e18565b610eda6020830185610e18565b610ee76040830184610ea9565b949350505050565b7f416d6f756e74206d7573742062652067726561746572207468616e2030000000600082015250565b6000610f25601d83610cc3565b9150610f3082610eef565b602082019050919050565b60006020820190508181036000830152610f5481610f18565b9050919050565b6000606082019050610f706000830186610c05565b610f7d6020830185610c05565b610f8a6040830184610e18565b949350505050565b60008160601b9050919050565b6000610faa82610f92565b9050919050565b6000610fbc82610f9f565b9050919050565b610fd4610fcf82610a6b565b610fb1565b82525050565b6000819050919050565b610ff5610ff082610aa9565b610fda565b82525050565b60006110078289610fc3565b6014820191506110178288610fc3565b6014820191506110278287610fc3565b6014820191506110378286610fe4565b6020820191506110478285610fe4565b6020820191506110578284610fe4565b60208201915081905097965050505050505056fea2646970667358221220c70c0efb04b8d60d72d0454af74d534a2cc774cdbc50c54d6162cffb7c5d485f64736f6c63430008140033",
  "linkReferences": {},
  "deployedLinkReferences": {}
}