{
  "_format": "hh-sol-artifact-1",
  "contractName": "IPRegistry",
  "sourceName": "contracts/IPRegistry.sol",
  "abi": [
    {
      "anonymous": false,
      "inputs": [
        {
          "indexed": true,
          "internalType": "bytes32",
          "name": "ipId",
          "type": "bytes32"
        },
        {
          "indexed": true,
          "internalType": "address",
          "name": "owner",
          "type": "address"
        },
        {
          "indexed": false,
          "internalType": "string",
          "name": "metadata",
          "type": "string"
        }
      ],
      "name": "IPRegistered",
      "type": "event"
    },
    {
      "inputs": [
        {
          "internalType": "bytes32",
          "name": "ipId",
          "type": "bytes32"
        }
      ],
      "name": "getIP",
      "outputs": [
        {
          "components": [
            {
              "internalType": "address",
              "name": "owner",
              "type": "address"
            },
            {
              "internalType": "string",
              "name": "metadata",
              "type": "string"
            },
            {
              "internalType": "uint256",
              "name": "timestamp",
              "type": "uint256"
            }
          ],
          "internalType": "struct IPRegistry.IP",
          "name": "",
          "type": "tuple"
        }
      ],
      "stateMutability": "view",
      "type": "function"
    },
    {
      "inputs": [
        {
          "internalType": "address",
          "name": "owner",
          "type": "address"
        }
      ],
      "name": "getOwnerIPs",
      "outputs": [
        {
          "internalType": "bytes32[]",
          "name": "",
          "type": "bytes32[]"
        }
      ],
      "stateMutability": "view",
      "type": "function"
    },
    {
      "inputs": [
        {
          "internalType": "bytes32",
          "name": "",
          "type": "bytes32"
        }
      ],
      "name": "ipAssets",
      "outputs": [
        {
          "internalType": "address",
          "name": "owner",
          "type": "address"
        },
        {
          "internalType": "string",
          "name": "metadata",
          "type": "string"
        },
        {
          "internalType": "uint256",
          "name": "timestamp",
          "type": "uint256"
        }
      ],
      "stateMutability": "view",
      "type": "function"
    },
    {
      "inputs": [
        {
          "internalType": "address",
          "name": "",
          "type": "address"
        },
        {
          "internalType": "uint256",
          "name": "",
          "type": "uint256"
        }
      ],
      "name": "ownerIPs",
      "outputs": [
        {
          "internalType": "bytes32",
          "name": "",
          "type": "bytes32"
        }
      ],
      "stateMutability": "view",
      "type": "function"
    },
    {
      "inputs": [
        {
          "internalType": "string",
          "name": "metadata",
          "type": "string"
        }
      ],
      "name": "registerIP",
      "outputs": [
        {
          "internalType": "bytes32",
          "name": "",
          "type": "bytes32"
        }
      ],
      "stateMutability": "nonpayable",
      "type": "function"
    }
  ],
  "bytecode": "0x608060405234801561001057600080fd5b50610fb2806100206000396000f3fe608060405234801561001057600080fd5b50600436106100575760003560e01c806324a8c63f1461005c5780632816fb0b1461008c578063387dbdc3146100bc578063c7f19355146100ec578063ec863eec1461011c575b600080fd5b61007660048036038101906100719190610680565b61014e565b60405161008391906106d9565b60405180910390f35b6100a660048036038101906100a191906106f4565b61017f565b6040516100b391906107df565b60405180910390f35b6100d660048036038101906100d1919061082d565b610216565b6040516100e39190610958565b60405180910390f35b61010660048036038101906101019190610aaf565b610334565b60405161011391906106d9565b60405180910390f35b6101366004803603810190610131919061082d565b6104cf565b60405161014593929190610b60565b60405180910390f35b6001602052816000526040600020818154811061016a57600080fd5b90600052602060002001600091509150505481565b6060600160008373ffffffffffffffffffffffffffffffffffffffff1673ffffffffffffffffffffffffffffffffffffffff16815260200190815260200160002080548060200260200160405190810160405280929190818152602001828054801561020a57602002820191906000526020600020905b8154815260200190600101908083116101f6575b50505050509050919050565b61021e6105a1565b6000808381526020019081526020016000206040518060600160405290816000820160009054906101000a900473ffffffffffffffffffffffffffffffffffffffff1673ffffffffffffffffffffffffffffffffffffffff1673ffffffffffffffffffffffffffffffffffffffff1681526020016001820180546102a190610bcd565b80601f01602080910402602001604051908101604052809291908181526020018280546102cd90610bcd565b801561031a5780601f106102ef5761010080835404028352916020019161031a565b820191906000526020600020905b8154815290600101906020018083116102fd57829003601f168201915b505050505081526020016002820154815250509050919050565b60008033428460405160200161034c93929190610ca3565b60405160208183030381529060405280519060200120905060405180606001604052803373ffffffffffffffffffffffffffffffffffffffff1681526020018481526020014281525060008083815260200190815260200160002060008201518160000160006101000a81548173ffffffffffffffffffffffffffffffffffffffff021916908373ffffffffffffffffffffffffffffffffffffffff16021790555060208201518160010190816104039190610e88565b5060408201518160020155905050600160003373ffffffffffffffffffffffffffffffffffffffff1673ffffffffffffffffffffffffffffffffffffffff1681526020019081526020016000208190806001815401808255809150506001900390600052602060002001600090919091909150553373ffffffffffffffffffffffffffffffffffffffff16817f31aca62f848242363e449c813e947cd2a51d8d50e1b70209ffbdbff88d32af5d856040516104be9190610f5a565b60405180910390a380915050919050565b60006020528060005260406000206000915090508060000160009054906101000a900473ffffffffffffffffffffffffffffffffffffffff169080600101805461051890610bcd565b80601f016020809104026020016040519081016040528092919081815260200182805461054490610bcd565b80156105915780601f1061056657610100808354040283529160200191610591565b820191906000526020600020905b81548152906001019060200180831161057457829003601f168201915b5050505050908060020154905083565b6040518060600160405280600073ffffffffffffffffffffffffffffffffffffffff16815260200160608152602001600081525090565b6000604051905090565b600080fd5b600080fd5b600073ffffffffffffffffffffffffffffffffffffffff82169050919050565b6000610617826105ec565b9050919050565b6106278161060c565b811461063257600080fd5b50565b6000813590506106448161061e565b92915050565b6000819050919050565b61065d8161064a565b811461066857600080fd5b50565b60008135905061067a81610654565b92915050565b60008060408385031215610697576106966105e2565b5b60006106a585828601610635565b92505060206106b68582860161066b565b9150509250929050565b6000819050919050565b6106d3816106c0565b82525050565b60006020820190506106ee60008301846106ca565b92915050565b60006020828403121561070a576107096105e2565b5b600061071884828501610635565b91505092915050565b600081519050919050565b600082825260208201905092915050565b6000819050602082019050919050565b610756816106c0565b82525050565b6000610768838361074d565b60208301905092915050565b6000602082019050919050565b600061078c82610721565b610796818561072c565b93506107a18361073d565b8060005b838110156107d25781516107b9888261075c565b97506107c483610774565b9250506001810190506107a5565b5085935050505092915050565b600060208201905081810360008301526107f98184610781565b905092915050565b61080a816106c0565b811461081557600080fd5b50565b60008135905061082781610801565b92915050565b600060208284031215610843576108426105e2565b5b600061085184828501610818565b91505092915050565b6108638161060c565b82525050565b600081519050919050565b600082825260208201905092915050565b60005b838110156108a3578082015181840152602081019050610888565b60008484015250505050565b6000601f19601f8301169050919050565b60006108cb82610869565b6108d58185610874565b93506108e5818560208601610885565b6108ee816108af565b840191505092915050565b6109028161064a565b82525050565b6000606083016000830151610920600086018261085a565b506020830151848203602086015261093882826108c0565b915050604083015161094d60408601826108f9565b508091505092915050565b600060208201905081810360008301526109728184610908565b905092915050565b600080fd5b600080fd5b7f4e487b7100000000000000000000000000000000000000000000000000000000600052604160045260246000fd5b6109bc826108af565b810181811067ffffffffffffffff821117156109db576109da610984565b5b80604052505050565b60006109ee6105d8565b90506109fa82826109b3565b919050565b600067ffffffffffffffff821115610a1a57610a19610984565b5b610a23826108af565b9050602081019050919050565b82818337600083830152505050565b6000610a52610a4d846109ff565b6109e4565b905082815260208101848484011115610a6e57610a6d61097f565b5b610a79848285610a30565b509392505050565b600082601f830112610a9657610a9561097a565b5b8135610aa6848260208601610a3f565b91505092915050565b600060208284031215610ac557610ac46105e2565b5b600082013567ffffffffffffffff811115610ae357610ae26105e7565b5b610aef84828501610a81565b91505092915050565b610b018161060c565b82525050565b600082825260208201905092915050565b6000610b2382610869565b610b2d8185610b07565b9350610b3d818560208601610885565b610b46816108af565b840191505092915050565b610b5a8161064a565b82525050565b6000606082019050610b756000830186610af8565b8181036020830152610b878185610b18565b9050610b966040830184610b51565b949350505050565b7f4e487b7100000000000000000000000000000000000000000000000000000000600052602260045260246000fd5b60006002820490506001821680610be557607f821691505b602082108103610bf857610bf7610b9e565b5b50919050565b60008160601b9050919050565b6000610c1682610bfe565b9050919050565b6000610c2882610c0b565b9050919050565b610c40610c3b8261060c565b610c1d565b82525050565b6000819050919050565b610c61610c5c8261064a565b610c46565b82525050565b600081905092915050565b6000610c7d82610869565b610c878185610c67565b9350610c97818560208601610885565b80840191505092915050565b6000610caf8286610c2f565b601482019150610cbf8285610c50565b602082019150610ccf8284610c72565b9150819050949350505050565b60008190508160005260206000209050919050565b60006020601f8301049050919050565b600082821b905092915050565b600060088302610d3e7fffffffffffffffffffffffffffffffffffffffffffffffffffffffffffffffff82610d01565b610d488683610d01565b95508019841693508086168417925050509392505050565b6000819050919050565b6000610d85610d80610d7b8461064a565b610d60565b61064a565b9050919050565b6000819050919050565b610d9f83610d6a565b610db3610dab82610d8c565b848454610d0e565b825550505050565b600090565b610dc8610dbb565b610dd3818484610d96565b505050565b5b81811015610df757610dec600082610dc0565b600181019050610dd9565b5050565b601f821115610e3c57610e0d81610cdc565b610e1684610cf1565b81016020851015610e25578190505b610e39610e3185610cf1565b830182610dd8565b50505b505050565b600082821c905092915050565b6000610e5f60001984600802610e41565b1980831691505092915050565b6000610e788383610e4e565b9150826002028217905092915050565b610e9182610869565b67ffffffffffffffff811115610eaa57610ea9610984565b5b610eb48254610bcd565b610ebf828285610dfb565b600060209050601f831160018114610ef25760008415610ee0578287015190505b610eea8582610e6c565b865550610f52565b601f198416610f0086610cdc565b60005b82811015610f2857848901518255600182019150602085019450602081019050610f03565b86831015610f455784890151610f41601f891682610e4e565b8355505b6001600288020188555050505b505050505050565b60006020820190508181036000830152610f748184610b18565b90509291505056fea264697066735822122042309c43c27b08a7b38c1b986c4b5f47de80ec89468f3890482b818a871d9c5064736f6c63430008130033",
  "linkReferences": {},
  "deployedLinkReferences": {}
}