{
  "_format": "hh-sol-artifact-1",
  "contractName": "DeBridgeHandler",
  "sourceName": "contracts/DeBridgeHandler.sol",
  "abi": [
    {
      "inputs": [
        {
          "internalType": "address",
          "name": "_deBridgeGate",
          "type": "address"
        }
      ],
      "stateMutability": "nonpayable",
      "type": "constructor"
    },
    {
      "anonymous": false,
      "inputs": [
        {
          "indexed": true,
          "internalType": "address",
          "name": "sender",
          "type": "address"
        },
        {
          "indexed": true,
          "internalType": "address",
          "name": "receiver",
          "type": "address"
        },
        {
          "indexed": false,
          "internalType": "uint256",
          "name": "amount",
          "type": "uint256"
        },
        {
          "indexed": false,
          "internalType": "uint256",
          "name": "targetChainId",
          "type": "uint256"
        }
      ],
      "name": "CrossChainTransfer",
      "type": "event"
    },
    {
      "anonymous": false,
      "inputs": [
        {
          "indexed": true,
          "internalType": "address",
          "name": "previousOwner",
          "type": "address"
        },
        {
          "indexed": true,
          "internalType": "address",
          "name": "newOwner",
          "type": "address"
        }
      ],
      "name": "OwnershipTransferred",
      "type": "event"
    },
    {
      "inputs": [],
      "name": "deBridgeGate",
      "outputs": [
        {
          "internalType": "contract IDeBridgeGate",
          "name": "",
          "type": "address"
        }
      ],
      "stateMutability": "view",
      "type": "function"
    },
    {
      "inputs": [],
      "name": "owner",
      "outputs": [
        {
          "internalType": "address",
          "name": "",
          "type": "address"
        }
      ],
      "stateMutability": "view",
      "type": "function"
    },
    {
      "inputs": [],
      "name": "renounceOwnership",
      "outputs": [],
      "stateMutability": "nonpayable",
      "type": "function"
    },
    {
      "inputs": [
        {
          "internalType": "address",
          "name": "_receiver",
          "type": "address"
        },
        {
          "internalType": "uint256",
          "name": "_amount",
          "type": "uint256"
        },
        {
          "internalType": "uint256",
          "name": "_targetChainId",
          "type": "uint256"
        }
      ],
      "name": "sendCrossChain",
      "outputs": [],
      "stateMutability": "payable",
      "type": "function"
    },
    {
      "inputs": [
        {
          "internalType": "address",
          "name": "newOwner",
          "type": "address"
        }
      ],
      "name": "transferOwnership",
      "outputs": [],
      "stateMutability": "nonpayable",
      "type": "function"
    },
    {
      "stateMutability": "payable",
      "type": "receive"
    }
  ],
  "bytecode": "0x608060405234801561001057600080fd5b50604051610d39380380610d39833981810160405281019061003291906101c4565b61004e61004361009560201b60201c565b61009d60201b60201c565b80600160006101000a81548173ffffffffffffffffffffffffffffffffffffffff021916908373ffffffffffffffffffffffffffffffffffffffff160217905550506101f1565b600033905090565b60008060009054906101000a900473ffffffffffffffffffffffffffffffffffffffff169050816000806101000a81548173ffffffffffffffffffffffffffffffffffffffff021916908373ffffffffffffffffffffffffffffffffffffffff1602179055508173ffffffffffffffffffffffffffffffffffffffff168173ffffffffffffffffffffffffffffffffffffffff167f8be0079c531659141344cd1fd0a4f28419497f9722a3daafe3b4186f6b6457e060405160405180910390a35050565b600080fd5b600073ffffffffffffffffffffffffffffffffffffffff82169050919050565b600061019182610166565b9050919050565b6101a181610186565b81146101ac57600080fd5b50565b6000815190506101be81610198565b92915050565b6000602082840312156101da576101d9610161565b5b60006101e8848285016101af565b91505092915050565b610b39806102006000396000f3fe60806040526004361061004e5760003560e01c8063715018a61461005a5780637fd88e48146100715780638da5cb5b1461008d578063ca777fbf146100b8578063f2fde38b146100e357610055565b3661005557005b600080fd5b34801561006657600080fd5b5061006f61010c565b005b61008b600480360381019061008691906105b2565b610120565b005b34801561009957600080fd5b506100a26102fd565b6040516100af9190610614565b60405180910390f35b3480156100c457600080fd5b506100cd610326565b6040516100da919061068e565b60405180910390f35b3480156100ef57600080fd5b5061010a600480360381019061010591906106a9565b61034c565b005b6101146103cf565b61011e600061044d565b565b600073ffffffffffffffffffffffffffffffffffffffff168373ffffffffffffffffffffffffffffffffffffffff160361018f576040517f08c379a000000000000000000000000000000000000000000000000000000000815260040161018690610733565b60405180910390fd5b600082116101d2576040517f08c379a00000000000000000000000000000000000000000000000000000000081526004016101c99061079f565b60405180910390fd5b6000836040516020016101e59190610807565b6040516020818303038152906040529050600160009054906101000a900473ffffffffffffffffffffffffffffffffffffffff1673ffffffffffffffffffffffffffffffffffffffff1663be2974763460008686866000806040518863ffffffff1660e01b815260040161025e9695949392919061094d565b6000604051808303818588803b15801561027757600080fd5b505af115801561028b573d6000803e3d6000fd5b50505050508373ffffffffffffffffffffffffffffffffffffffff163373ffffffffffffffffffffffffffffffffffffffff167fbe5f54200b66d2447334c5f5a9a874cfe01a8fc8b6b0c1b2414596f72d42e35a85856040516102ef9291906109dc565b60405180910390a350505050565b60008060009054906101000a900473ffffffffffffffffffffffffffffffffffffffff16905090565b600160009054906101000a900473ffffffffffffffffffffffffffffffffffffffff1681565b6103546103cf565b600073ffffffffffffffffffffffffffffffffffffffff168173ffffffffffffffffffffffffffffffffffffffff16036103c3576040517f08c379a00000000000000000000000000000000000000000000000000000000081526004016103ba90610a77565b60405180910390fd5b6103cc8161044d565b50565b6103d7610511565b73ffffffffffffffffffffffffffffffffffffffff166103f56102fd565b73ffffffffffffffffffffffffffffffffffffffff161461044b576040517f08c379a000000000000000000000000000000000000000000000000000000000815260040161044290610ae3565b60405180910390fd5b565b60008060009054906101000a900473ffffffffffffffffffffffffffffffffffffffff169050816000806101000a81548173ffffffffffffffffffffffffffffffffffffffff021916908373ffffffffffffffffffffffffffffffffffffffff1602179055508173ffffffffffffffffffffffffffffffffffffffff168173ffffffffffffffffffffffffffffffffffffffff167f8be0079c531659141344cd1fd0a4f28419497f9722a3daafe3b4186f6b6457e060405160405180910390a35050565b600033905090565b600080fd5b600073ffffffffffffffffffffffffffffffffffffffff82169050919050565b60006105498261051e565b9050919050565b6105598161053e565b811461056457600080fd5b50565b60008135905061057681610550565b92915050565b6000819050919050565b61058f8161057c565b811461059a57600080fd5b50565b6000813590506105ac81610586565b92915050565b6000806000606084860312156105cb576105ca610519565b5b60006105d986828701610567565b93505060206105ea8682870161059d565b92505060406105fb8682870161059d565b9150509250925092565b61060e8161053e565b82525050565b60006020820190506106296000830184610605565b92915050565b6000819050919050565b600061065461064f61064a8461051e565b61062f565b61051e565b9050919050565b600061066682610639565b9050919050565b60006106788261065b565b9050919050565b6106888161066d565b82525050565b60006020820190506106a3600083018461067f565b92915050565b6000602082840312156106bf576106be610519565b5b60006106cd84828501610567565b91505092915050565b600082825260208201905092915050565b7f496e76616c696420726563656976657220616464726573730000000000000000600082015250565b600061071d6018836106d6565b9150610728826106e7565b602082019050919050565b6000602082019050818103600083015261074c81610710565b9050919050565b7f416d6f756e74206d7573742062652067726561746572207468616e2030000000600082015250565b6000610789601d836106d6565b915061079482610753565b602082019050919050565b600060208201905081810360008301526107b88161077c565b9050919050565b60008160601b9050919050565b60006107d7826107bf565b9050919050565b60006107e9826107cc565b9050919050565b6108016107fc8261053e565b6107de565b82525050565b600061081382846107f0565b60148201915081905092915050565b61082b8161057c565b82525050565b600081519050919050565b600082825260208201905092915050565b60005b8381101561086b578082015181840152602081019050610850565b60008484015250505050565b6000601f19601f8301169050919050565b600061089382610831565b61089d818561083c565b93506108ad81856020860161084d565b6108b681610877565b840191505092915050565b50565b60006108d160008361083c565b91506108dc826108c1565b600082019050919050565b60008115159050919050565b6108fc816108e7565b82525050565b6000819050919050565b600063ffffffff82169050919050565b600061093761093261092d84610902565b61062f565b61090c565b9050919050565b6109478161091c565b82525050565b6000610100820190506109636000830189610605565b6109706020830188610822565b61097d6040830187610822565b818103606083015261098f8186610888565b905081810360808301526109a2816108c4565b90506109b160a08301856108f3565b6109be60c083018461093e565b81810360e08301526109cf816108c4565b9050979650505050505050565b60006040820190506109f16000830185610822565b6109fe6020830184610822565b9392505050565b7f4f776e61626c653a206e6577206f776e657220697320746865207a65726f206160008201527f6464726573730000000000000000000000000000000000000000000000000000602082015250565b6000610a616026836106d6565b9150610a6c82610a05565b604082019050919050565b60006020820190508181036000830152610a9081610a54565b9050919050565b7f4f776e61626c653a2063616c6c6572206973206e6f7420746865206f776e6572600082015250565b6000610acd6020836106d6565b9150610ad882610a97565b602082019050919050565b60006020820190508181036000830152610afc81610ac0565b905091905056fea264697066735822122058d4fd372652f085e1bf7499c305295233fd6b5c13a5ec9576f5143b3c93361d64736f6c63430008130033",
  "linkReferences": {},
  "deployedLinkReferences": {}
}