{
  "_format": "hh-sol-artifact-1",
  "contractName": "LicenseRegistry",
  "sourceName": "contracts/LicenseRegistry.sol",
  "abi": [
    {
      "inputs": [
        {
          "internalType": "address",
          "name": "_ipRegistry",
          "type": "address"
        }
      ],
      "stateMutability": "nonpayable",
      "type": "constructor"
    },
    {
      "anonymous": false,
      "inputs": [
        {
          "indexed": true,
          "internalType": "bytes32",
          "name": "licenseId",
          "type": "bytes32"
        },
        {
          "indexed": true,
          "internalType": "bytes32",
          "name": "ipId",
          "type": "bytes32"
        },
        {
          "indexed": false,
          "internalType": "address",
          "name": "licensor",
          "type": "address"
        },
        {
          "indexed": false,
          "internalType": "address",
          "name": "licensee",
          "type": "address"
        },
        {
          "indexed": false,
          "internalType": "string",
          "name": "terms",
          "type": "string"
        }
      ],
      "name": "LicenseCreated",
      "type": "event"
    },
    {
      "anonymous": false,
      "inputs": [
        {
          "indexed": true,
          "internalType": "address",
          "name": "previousOwner",
          "type": "address"
        },
        {
          "indexed": true,
          "internalType": "address",
          "name": "newOwner",
          "type": "address"
        }
      ],
      "name": "OwnershipTransferred",
      "type": "event"
    },
    {
      "inputs": [
        {
          "internalType": "bytes32",
          "name": "ipId",
          "type": "bytes32"
        },
        {
          "internalType": "address",
          "name": "licensee",
          "type": "address"
        },
        {
          "internalType": "uint256",
          "name": "endTime",
          "type": "uint256"
        },
        {
          "internalType": "string",
          "name": "terms",
          "type": "string"
        }
      ],
      "name": "createLicense",
      "outputs": [
        {
          "internalType": "bytes32",
          "name": "",
          "type": "bytes32"
        }
      ],
      "stateMutability": "nonpayable",
      "type": "function"
    },
    {
      "inputs": [
        {
          "internalType": "bytes32",
          "name": "licenseId",
          "type": "bytes32"
        }
      ],
      "name": "getLicense",
      "outputs": [
        {
          "internalType": "bytes32",
          "name": "ipId",
          "type": "bytes32"
        },
        {
          "internalType": "address",
          "name": "licensor",
          "type": "address"
        },
        {
          "internalType": "address",
          "name": "licensee",
          "type": "address"
        },
        {
          "internalType": "uint256",
          "name": "startTime",
          "type": "uint256"
        },
        {
          "internalType": "uint256",
          "name": "endTime",
          "type": "uint256"
        },
        {
          "internalType": "string",
          "name": "terms",
          "type": "string"
        }
      ],
      "stateMutability": "view",
      "type": "function"
    },
    {
      "inputs": [
        {
          "internalType": "address",
          "name": "licensee",
          "type": "address"
        }
      ],
      "name": "getLicenseeLicenses",
      "outputs": [
        {
          "internalType": "bytes32[]",
          "name": "",
          "type": "bytes32[]"
        }
      ],
      "stateMutability": "view",
      "type": "function"
    },
    {
      "inputs": [
        {
          "internalType": "address",
          "name": "licensor",
          "type": "address"
        }
      ],
      "name": "getLicensorLicenses",
      "outputs": [
        {
          "internalType": "bytes32[]",
          "name": "",
          "type": "bytes32[]"
        }
      ],
      "stateMutability": "view",
      "type": "function"
    },
    {
      "inputs": [],
      "name": "ipRegistry",
      "outputs": [
        {
          "internalType": "contract IPRegistry",
          "name": "",
          "type": "address"
        }
      ],
      "stateMutability": "view",
      "type": "function"
    },
    {
      "inputs": [
        {
          "internalType": "address",
          "name": "",
          "type": "address"
        },
        {
          "internalType": "uint256",
          "name": "",
          "type": "uint256"
        }
      ],
      "name": "licenseeLicenses",
      "outputs": [
        {
          "internalType": "bytes32",
          "name": "",
          "type": "bytes32"
        }
      ],
      "stateMutability": "view",
      "type": "function"
    },
    {
      "inputs": [
        {
          "internalType": "bytes32",
          "name": "",
          "type": "bytes32"
        }
      ],
      "name": "licenses",
      "outputs": [
        {
          "internalType": "bytes32",
          "name": "ipId",
          "type": "bytes32"
        },
        {
          "internalType": "address",
          "name": "licensor",
          "type": "address"
        },
        {
          "internalType": "address",
          "name": "licensee",
          "type": "address"
        },
        {
          "internalType": "uint256",
          "name": "startTime",
          "type": "uint256"
        },
        {
          "internalType": "uint256",
          "name": "endTime",
          "type": "uint256"
        },
        {
          "internalType": "string",
          "name": "terms",
          "type": "string"
        }
      ],
      "stateMutability": "view",
      "type": "function"
    },
    {
      "inputs": [
        {
          "internalType": "address",
          "name": "",
          "type": "address"
        },
        {
          "internalType": "uint256",
          "name": "",
          "type": "uint256"
        }
      ],
      "name": "licensorLicenses",
      "outputs": [
        {
          "internalType": "bytes32",
          "name": "",
          "type": "bytes32"
        }
      ],
      "stateMutability": "view",
      "type": "function"
    },
    {
      "inputs": [],
      "name": "owner",
      "outputs": [
        {
          "internalType": "address",
          "name": "",
          "type": "address"
        }
      ],
      "stateMutability": "view",
      "type": "function"
    },
    {
      "inputs": [],
      "name": "renounceOwnership",
      "outputs": [],
      "stateMutability": "nonpayable",
      "type": "function"
    },
    {
      "inputs": [
        {
          "internalType": "address",
          "name": "newOwner",
          "type": "address"
        }
      ],
      "name": "transferOwnership",
      "outputs": [],
      "stateMutability": "nonpayable",
      "type": "function"
    }
  ],
  "bytecode": "0x608060405234801561001057600080fd5b50604051610e5d380380610e5d83398101604081905261002f916100ad565b6100383361005d565b600180546001600160a01b0319166001600160a01b03929092169190911790556100dd565b600080546001600160a01b038381166001600160a01b0319831681178455604051919092169283917f8be0079c531659141344cd1fd0a4f28419497f9722a3daafe3b4186f6b6457e09190a35050565b6000602082840312156100bf57600080fd5b81516001600160a01b03811681146100d657600080fd5b9392505050565b610d71806100ec6000396000f3fe608060405234801561001057600080fd5b50600436106100a95760003560e01c8063825e650611610071578063825e65061461012f5780638da5cb5b14610154578063a22ced5514610165578063bf7e47de14610185578063cde74e5114610198578063f2fde38b146101ab57600080fd5b80631810d371146100ae57806349f5e9ea146100d457806356494681146100ff578063715018a614610112578063750934541461011c575b600080fd5b6100c16100bc366004610938565b6101be565b6040519081526020015b60405180910390f35b6001546100e7906001600160a01b031681565b6040516001600160a01b0390911681526020016100cb565b6100c161010d3660046109de565b61045f565b61011a610490565b005b6100c161012a3660046109de565b6104a4565b61014261013d366004610a0a565b6104c0565b6040516100cb96959493929190610a73565b6000546001600160a01b03166100e7565b610178610173366004610abf565b6105ee565b6040516100cb9190610ae3565b610178610193366004610abf565b61065a565b6101426101a6366004610a0a565b6106c4565b61011a6101b9366004610abf565b610791565b60015460405163387dbdc360e01b81526004810186905260009182916001600160a01b039091169063387dbdc390602401600060405180830381865afa15801561020c573d6000803e3d6000fd5b505050506040513d6000823e601f3d908101601f191682016040526102349190810190610b27565b50909150506001600160a01b03811633146102855760405162461bcd60e51b815260206004820152600c60248201526b2737ba1024a81037bbb732b960a11b60448201526064015b60405180910390fd5b4284116102d45760405162461bcd60e51b815260206004820152601e60248201527f456e642074696d65206d75737420626520696e20746865206675747572650000604482015260640161027c565b60408051602081018890526bffffffffffffffffffffffff1933606090811b8216938301939093529187901b909116605482015242606882015260009060880160408051601f19818403018152828252805160209182012060c0840183528a8452338483019081526001600160a01b038b81168686019081524260608801908152608088018d815260a089018d81526000878152600298899052989098208951815594516001860180549186166001600160a01b031992831617905592519685018054979094169690921695909517909155925160038201559151600483015591519193509060058201906103c99082610c46565b5050506001600160a01b0386166000908152600360209081526040808320805460018181018355918552838520018590553380855260048452828520805492830181558552929093209092018390559051889183917f1025a0f4fd75e96353947292e36799fe13888986fd540b80ddd41f8ecb92cdf49161044d918b908a90610d06565b60405180910390a39695505050505050565b6003602052816000526040600020818154811061047b57600080fd5b90600052602060002001600091509150505481565b61049861080a565b6104a26000610864565b565b6004602052816000526040600020818154811061047b57600080fd5b6000818152600260208181526040808420815160c0810183528154815260018201546001600160a01b03908116948201949094529381015490921690830152600381015460608381019190915260048201546080840152600582018054859485948594859490938593929160a084019161053990610bbd565b80601f016020809104026020016040519081016040528092919081815260200182805461056590610bbd565b80156105b25780601f10610587576101008083540402835291602001916105b2565b820191906000526020600020905b81548152906001019060200180831161059557829003601f168201915b5050509190925250508151602083015160408401516060850151608086015160a090960151939e929d50909b5099509297509550909350505050565b6001600160a01b03811660009081526004602090815260409182902080548351818402810184019094528084526060939283018282801561064e57602002820191906000526020600020905b81548152602001906001019080831161063a575b50505050509050919050565b6001600160a01b03811660009081526003602090815260409182902080548351818402810184019094528084526060939283018282801561064e576020028201919060005260206000209081548152602001906001019080831161063a5750505050509050919050565b600260208190526000918252604090912080546001820154928201546003830154600484015460058501805494966001600160a01b03908116969416949293919261070e90610bbd565b80601f016020809104026020016040519081016040528092919081815260200182805461073a90610bbd565b80156107875780601f1061075c57610100808354040283529160200191610787565b820191906000526020600020905b81548152906001019060200180831161076a57829003601f168201915b5050505050905086565b61079961080a565b6001600160a01b0381166107fe5760405162461bcd60e51b815260206004820152602660248201527f4f776e61626c653a206e6577206f776e657220697320746865207a65726f206160448201526564647265737360d01b606482015260840161027c565b61080781610864565b50565b6000546001600160a01b031633146104a25760405162461bcd60e51b815260206004820181905260248201527f4f776e61626c653a2063616c6c6572206973206e6f7420746865206f776e6572604482015260640161027c565b600080546001600160a01b038381166001600160a01b0319831681178455604051919092169283917f8be0079c531659141344cd1fd0a4f28419497f9722a3daafe3b4186f6b6457e09190a35050565b6001600160a01b038116811461080757600080fd5b634e487b7160e01b600052604160045260246000fd5b604051601f8201601f1916810167ffffffffffffffff81118282101715610908576109086108c9565b604052919050565b600067ffffffffffffffff82111561092a5761092a6108c9565b50601f01601f191660200190565b6000806000806080858703121561094e57600080fd5b843593506020850135610960816108b4565b925060408501359150606085013567ffffffffffffffff81111561098357600080fd5b8501601f8101871361099457600080fd5b80356109a76109a282610910565b6108df565b8181528860208385010111156109bc57600080fd5b8160208401602083013760006020838301015280935050505092959194509250565b600080604083850312156109f157600080fd5b82356109fc816108b4565b946020939093013593505050565b600060208284031215610a1c57600080fd5b5035919050565b60005b83811015610a3e578181015183820152602001610a26565b50506000910152565b60008151808452610a5f816020860160208601610a23565b601f01601f19169290920160200192915050565b8681526001600160a01b03868116602083015285166040820152606081018490526080810183905260c060a08201819052600090610ab390830184610a47565b98975050505050505050565b600060208284031215610ad157600080fd5b8135610adc816108b4565b9392505050565b6020808252825182820181905260009190848201906040850190845b81811015610b1b57835183529284019291840191600101610aff565b50909695505050505050565b600080600060608486031215610b3c57600080fd5b8351610b47816108b4565b602085015190935067ffffffffffffffff811115610b6457600080fd5b8401601f81018613610b7557600080fd5b8051610b836109a282610910565b818152876020838501011115610b9857600080fd5b610ba9826020830160208601610a23565b809450505050604084015190509250925092565b600181811c90821680610bd157607f821691505b602082108103610bf157634e487b7160e01b600052602260045260246000fd5b50919050565b601f821115610c4157600081815260208120601f850160051c81016020861015610c1e5750805b601f850160051c820191505b81811015610c3d57828155600101610c2a565b5050505b505050565b815167ffffffffffffffff811115610c6057610c606108c9565b610c7481610c6e8454610bbd565b84610bf7565b602080601f831160018114610ca95760008415610c915750858301515b600019600386901b1c1916600185901b178555610c3d565b600085815260208120601f198616915b82811015610cd857888601518255948401946001909101908401610cb9565b5085821015610cf65787850151600019600388901b60f8161c191681555b5050505050600190811b01905550565b6001600160a01b03848116825283166020820152606060408201819052600090610d3290830184610a47565b9594505050505056fea2646970667358221220761836f6275c819353b2bb8979f60f6cfc580a3a50ed4193338b9f79acf7e0e364736f6c63430008140033",
  "linkReferences": {},
  "deployedLinkReferences": {}
}