{
  "_format": "hh-sol-artifact-1",
  "contractName": "DisputeModule",
  "sourceName": "contracts/DisputeModule.sol",
  "abi": [
    {
      "inputs": [
        {
          "internalType": "address",
          "name": "_ipRegistry",
          "type": "address"
        },
        {
          "internalType": "address",
          "name": "_licenseRegistry",
          "type": "address"
        }
      ],
      "stateMutability": "nonpayable",
      "type": "constructor"
    },
    {
      "anonymous": false,
      "inputs": [
        {
          "indexed": true,
          "internalType": "bytes32",
          "name": "disputeId",
          "type": "bytes32"
        },
        {
          "indexed": true,
          "internalType": "bytes32",
          "name": "ipId",
          "type": "bytes32"
        },
        {
          "indexed": true,
          "internalType": "bytes32",
          "name": "licenseId",
          "type": "bytes32"
        },
        {
          "indexed": false,
          "internalType": "address",
          "name": "complainant",
          "type": "address"
        }
      ],
      "name": "DisputeCreated",
      "type": "event"
    },
    {
      "anonymous": false,
      "inputs": [
        {
          "indexed": true,
          "internalType": "bytes32",
          "name": "disputeId",
          "type": "bytes32"
        },
        {
          "indexed": false,
          "internalType": "bool",
          "name": "resolved",
          "type": "bool"
        }
      ],
      "name": "DisputeResolved",
      "type": "event"
    },
    {
      "inputs": [
        {
          "internalType": "bytes32",
          "name": "ipId",
          "type": "bytes32"
        },
        {
          "internalType": "bytes32",
          "name": "licenseId",
          "type": "bytes32"
        },
        {
          "internalType": "string",
          "name": "reason",
          "type": "string"
        }
      ],
      "name": "createDispute",
      "outputs": [
        {
          "internalType": "bytes32",
          "name": "",
          "type": "bytes32"
        }
      ],
      "stateMutability": "nonpayable",
      "type": "function"
    },
    {
      "inputs": [
        {
          "internalType": "bytes32",
          "name": "",
          "type": "bytes32"
        }
      ],
      "name": "disputes",
      "outputs": [
        {
          "internalType": "bytes32",
          "name": "ipId",
          "type": "bytes32"
        },
        {
          "internalType": "bytes32",
          "name": "licenseId",
          "type": "bytes32"
        },
        {
          "internalType": "address",
          "name": "complainant",
          "type": "address"
        },
        {
          "internalType": "string",
          "name": "reason",
          "type": "string"
        },
        {
          "internalType": "uint256",
          "name": "timestamp",
          "type": "uint256"
        },
        {
          "internalType": "bool",
          "name": "resolved",
          "type": "bool"
        }
      ],
      "stateMutability": "view",
      "type": "function"
    },
    {
      "inputs": [
        {
          "internalType": "bytes32",
          "name": "disputeId",
          "type": "bytes32"
        }
      ],
      "name": "getDispute",
      "outputs": [
        {
          "components": [
            {
              "internalType": "bytes32",
              "name": "ipId",
              "type": "bytes32"
            },
            {
              "internalType": "bytes32",
              "name": "licenseId",
              "type": "bytes32"
            },
            {
              "internalType": "address",
              "name": "complainant",
              "type": "address"
            },
            {
              "internalType": "string",
              "name": "reason",
              "type": "string"
            },
            {
              "internalType": "uint256",
              "name": "timestamp",
              "type": "uint256"
            },
            {
              "internalType": "bool",
              "name": "resolved",
              "type": "bool"
            }
          ],
          "internalType": "struct DisputeModule.Dispute",
          "name": "",
          "type": "tuple"
        }
      ],
      "stateMutability": "view",
      "type": "function"
    },
    {
      "inputs": [
        {
          "internalType": "address",
          "name": "user",
          "type": "address"
        }
      ],
      "name": "getUserDisputes",
      "outputs": [
        {
          "internalType": "bytes32[]",
          "name": "",
          "type": "bytes32[]"
        }
      ],
      "stateMutability": "view",
      "type": "function"
    },
    {
      "inputs": [],
      "name": "ipRegistry",
      "outputs": [
        {
          "internalType": "contract IPRegistry",
          "name": "",
          "type": "address"
        }
      ],
      "stateMutability": "view",
      "type": "function"
    },
    {
      "inputs": [],
      "name": "licenseRegistry",
      "outputs": [
        {
          "internalType": "contract LicenseRegistry",
          "name": "",
          "type": "address"
        }
      ],
      "stateMutability": "view",
      "type": "function"
    },
    {
      "inputs": [
        {
          "internalType": "bytes32",
          "name": "disputeId",
          "type": "bytes32"
        },
        {
          "internalType": "bool",
          "name": "resolved",
          "type": "bool"
        }
      ],
      "name": "resolveDispute",
      "outputs": [],
      "stateMutability": "nonpayable",
      "type": "function"
    },
    {
      "inputs": [
        {
          "internalType": "address",
          "name": "",
          "type": "address"
        },
        {
          "internalType": "uint256",
          "name": "",
          "type": "uint256"
        }
      ],
      "name": "userDisputes",
      "outputs": [
        {
          "internalType": "bytes32",
          "name": "",
          "type": "bytes32"
        }
      ],
      "stateMutability": "view",
      "type": "function"
    }
  ],
  "bytecode": "0x60806040523480156200001157600080fd5b50604051620017f0380380620017f083398181016040528101906200003791906200012a565b816000806101000a81548173ffffffffffffffffffffffffffffffffffffffff021916908373ffffffffffffffffffffffffffffffffffffffff16021790555080600160006101000a81548173ffffffffffffffffffffffffffffffffffffffff021916908373ffffffffffffffffffffffffffffffffffffffff160217905550505062000171565b600080fd5b600073ffffffffffffffffffffffffffffffffffffffff82169050919050565b6000620000f282620000c5565b9050919050565b6200010481620000e5565b81146200011057600080fd5b50565b6000815190506200012481620000f9565b92915050565b60008060408385031215620001445762000143620000c0565b5b6000620001548582860162000113565b9250506020620001678582860162000113565b9150509250929050565b61166f80620001816000396000f3fe608060405234801561001057600080fd5b50600436106100885760003560e01c8063462085eb1161005b578063462085eb1461013e57806349f5e9ea1461016e578063bfb0a55b1461018c578063c2fda487146101bc57610088565b806311be19971461008d578063136ba6aa146100c25780633dc04159146100f257806343a0e3e614610122575b600080fd5b6100a760048036038101906100a2919061092d565b6101da565b6040516100b996959493929190610a6e565b60405180910390f35b6100dc60048036038101906100d7919061092d565b6102cb565b6040516100e99190610be5565b60405180910390f35b61010c60048036038101906101079190610c5f565b610419565b6040516101199190610c9f565b60405180910390f35b61013c60048036038101906101379190610ce6565b61044a565b005b61015860048036038101906101539190610e5b565b6105da565b6040516101659190610c9f565b60405180910390f35b6101766107ae565b6040516101839190610f29565b60405180910390f35b6101a660048036038101906101a19190610f44565b6107d2565b6040516101b39190611020565b60405180910390f35b6101c4610869565b6040516101d19190611063565b60405180910390f35b60026020528060005260406000206000915090508060000154908060010154908060020160009054906101000a900473ffffffffffffffffffffffffffffffffffffffff169080600301805461022f906110ad565b80601f016020809104026020016040519081016040528092919081815260200182805461025b906110ad565b80156102a85780601f1061027d576101008083540402835291602001916102a8565b820191906000526020600020905b81548152906001019060200180831161028b57829003601f168201915b5050505050908060040154908060050160009054906101000a900460ff16905086565b6102d361088f565b600260008381526020019081526020016000206040518060c001604052908160008201548152602001600182015481526020016002820160009054906101000a900473ffffffffffffffffffffffffffffffffffffffff1673ffffffffffffffffffffffffffffffffffffffff1673ffffffffffffffffffffffffffffffffffffffff16815260200160038201805461036b906110ad565b80601f0160208091040260200160405190810160405280929190818152602001828054610397906110ad565b80156103e45780601f106103b9576101008083540402835291602001916103e4565b820191906000526020600020905b8154815290600101906020018083116103c757829003601f168201915b50505050508152602001600482015481526020016005820160009054906101000a900460ff1615151515815250509050919050565b6003602052816000526040600020818154811061043557600080fd5b90600052602060002001600091509150505481565b3373ffffffffffffffffffffffffffffffffffffffff1660008054906101000a900473ffffffffffffffffffffffffffffffffffffffff1673ffffffffffffffffffffffffffffffffffffffff1663387dbdc360026000868152602001908152602001600020600001546040518263ffffffff1660e01b81526004016104d09190610c9f565b600060405180830381865afa1580156104ed573d6000803e3d6000fd5b505050506040513d6000823e3d601f19601f820116820180604052508101906105169190611202565b6000015173ffffffffffffffffffffffffffffffffffffffff1614610570576040517f08c379a000000000000000000000000000000000000000000000000000000000815260040161056790611297565b60405180910390fd5b806002600084815260200190815260200160002060050160006101000a81548160ff021916908315150217905550817f6309d9f2499864a4f9d4ddb22f2b493afde8c215a1cd2e178647596cffe2efa4826040516105ce91906112b7565b60405180910390a25050565b600080848433426040516020016105f4949392919061135c565b6040516020818303038152906040528051906020012090506040518060c001604052808681526020018581526020013373ffffffffffffffffffffffffffffffffffffffff1681526020018481526020014281526020016000151581525060026000838152602001908152602001600020600082015181600001556020820151816001015560408201518160020160006101000a81548173ffffffffffffffffffffffffffffffffffffffff021916908373ffffffffffffffffffffffffffffffffffffffff16021790555060608201518160030190816106d5919061154c565b506080820151816004015560a08201518160050160006101000a81548160ff021916908315150217905550905050600360003373ffffffffffffffffffffffffffffffffffffffff1673ffffffffffffffffffffffffffffffffffffffff1681526020019081526020016000208190806001815401808255809150506001900390600052602060002001600090919091909150558385827fdaeb9719c3c04c61416de2d742c32c483a81e8aa2cfe24a5a8d13e590f22b6423360405161079b919061161e565b60405180910390a4809150509392505050565b60008054906101000a900473ffffffffffffffffffffffffffffffffffffffff1681565b6060600360008373ffffffffffffffffffffffffffffffffffffffff1673ffffffffffffffffffffffffffffffffffffffff16815260200190815260200160002080548060200260200160405190810160405280929190818152602001828054801561085d57602002820191906000526020600020905b815481526020019060010190808311610849575b50505050509050919050565b600160009054906101000a900473ffffffffffffffffffffffffffffffffffffffff1681565b6040518060c001604052806000801916815260200160008019168152602001600073ffffffffffffffffffffffffffffffffffffffff16815260200160608152602001600081526020016000151581525090565b6000604051905090565b600080fd5b600080fd5b6000819050919050565b61090a816108f7565b811461091557600080fd5b50565b60008135905061092781610901565b92915050565b600060208284031215610943576109426108ed565b5b600061095184828501610918565b91505092915050565b610963816108f7565b82525050565b600073ffffffffffffffffffffffffffffffffffffffff82169050919050565b600061099482610969565b9050919050565b6109a481610989565b82525050565b600081519050919050565b600082825260208201905092915050565b60005b838110156109e45780820151818401526020810190506109c9565b60008484015250505050565b6000601f19601f8301169050919050565b6000610a0c826109aa565b610a1681856109b5565b9350610a268185602086016109c6565b610a2f816109f0565b840191505092915050565b6000819050919050565b610a4d81610a3a565b82525050565b60008115159050919050565b610a6881610a53565b82525050565b600060c082019050610a83600083018961095a565b610a90602083018861095a565b610a9d604083018761099b565b8181036060830152610aaf8186610a01565b9050610abe6080830185610a44565b610acb60a0830184610a5f565b979650505050505050565b610adf816108f7565b82525050565b610aee81610989565b82525050565b600082825260208201905092915050565b6000610b10826109aa565b610b1a8185610af4565b9350610b2a8185602086016109c6565b610b33816109f0565b840191505092915050565b610b4781610a3a565b82525050565b610b5681610a53565b82525050565b600060c083016000830151610b746000860182610ad6565b506020830151610b876020860182610ad6565b506040830151610b9a6040860182610ae5565b5060608301518482036060860152610bb28282610b05565b9150506080830151610bc76080860182610b3e565b5060a0830151610bda60a0860182610b4d565b508091505092915050565b60006020820190508181036000830152610bff8184610b5c565b905092915050565b610c1081610989565b8114610c1b57600080fd5b50565b600081359050610c2d81610c07565b92915050565b610c3c81610a3a565b8114610c4757600080fd5b50565b600081359050610c5981610c33565b92915050565b60008060408385031215610c7657610c756108ed565b5b6000610c8485828601610c1e565b9250506020610c9585828601610c4a565b9150509250929050565b6000602082019050610cb4600083018461095a565b92915050565b610cc381610a53565b8114610cce57600080fd5b50565b600081359050610ce081610cba565b92915050565b60008060408385031215610cfd57610cfc6108ed565b5b6000610d0b85828601610918565b9250506020610d1c85828601610cd1565b9150509250929050565b600080fd5b600080fd5b7f4e487b7100000000000000000000000000000000000000000000000000000000600052604160045260246000fd5b610d68826109f0565b810181811067ffffffffffffffff82111715610d8757610d86610d30565b5b80604052505050565b6000610d9a6108e3565b9050610da68282610d5f565b919050565b600067ffffffffffffffff821115610dc657610dc5610d30565b5b610dcf826109f0565b9050602081019050919050565b82818337600083830152505050565b6000610dfe610df984610dab565b610d90565b905082815260208101848484011115610e1a57610e19610d2b565b5b610e25848285610ddc565b509392505050565b600082601f830112610e4257610e41610d26565b5b8135610e52848260208601610deb565b91505092915050565b600080600060608486031215610e7457610e736108ed565b5b6000610e8286828701610918565b9350506020610e9386828701610918565b925050604084013567ffffffffffffffff811115610eb457610eb36108f2565b5b610ec086828701610e2d565b9150509250925092565b6000819050919050565b6000610eef610eea610ee584610969565b610eca565b610969565b9050919050565b6000610f0182610ed4565b9050919050565b6000610f1382610ef6565b9050919050565b610f2381610f08565b82525050565b6000602082019050610f3e6000830184610f1a565b92915050565b600060208284031215610f5a57610f596108ed565b5b6000610f6884828501610c1e565b91505092915050565b600081519050919050565b600082825260208201905092915050565b6000819050602082019050919050565b6000610fa98383610ad6565b60208301905092915050565b6000602082019050919050565b6000610fcd82610f71565b610fd78185610f7c565b9350610fe283610f8d565b8060005b83811015611013578151610ffa8882610f9d565b975061100583610fb5565b925050600181019050610fe6565b5085935050505092915050565b6000602082019050818103600083015261103a8184610fc2565b905092915050565b600061104d82610ef6565b9050919050565b61105d81611042565b82525050565b60006020820190506110786000830184611054565b92915050565b7f4e487b7100000000000000000000000000000000000000000000000000000000600052602260045260246000fd5b600060028204905060018216806110c557607f821691505b6020821081036110d8576110d761107e565b5b50919050565b600080fd5b600080fd5b6000815190506110f781610c07565b92915050565b600061111061110b84610dab565b610d90565b90508281526020810184848401111561112c5761112b610d2b565b5b6111378482856109c6565b509392505050565b600082601f83011261115457611153610d26565b5b81516111648482602086016110fd565b91505092915050565b60008151905061117c81610c33565b92915050565b600060608284031215611198576111976110de565b5b6111a26060610d90565b905060006111b2848285016110e8565b600083015250602082015167ffffffffffffffff8111156111d6576111d56110e3565b5b6111e28482850161113f565b60208301525060406111f68482850161116d565b60408301525092915050565b600060208284031215611218576112176108ed565b5b600082015167ffffffffffffffff811115611236576112356108f2565b5b61124284828501611182565b91505092915050565b7f4e6f74204950206f776e65720000000000000000000000000000000000000000600082015250565b6000611281600c836109b5565b915061128c8261124b565b602082019050919050565b600060208201905081810360008301526112b081611274565b9050919050565b60006020820190506112cc6000830184610a5f565b92915050565b6000819050919050565b6112ed6112e8826108f7565b6112d2565b82525050565b60008160601b9050919050565b600061130b826112f3565b9050919050565b600061131d82611300565b9050919050565b61133561133082610989565b611312565b82525050565b6000819050919050565b61135661135182610a3a565b61133b565b82525050565b600061136882876112dc565b60208201915061137882866112dc565b6020820191506113888285611324565b6014820191506113988284611345565b60208201915081905095945050505050565b60008190508160005260206000209050919050565b60006020601f8301049050919050565b600082821b905092915050565b60006008830261140c7fffffffffffffffffffffffffffffffffffffffffffffffffffffffffffffffff826113cf565b61141686836113cf565b95508019841693508086168417925050509392505050565b600061144961144461143f84610a3a565b610eca565b610a3a565b9050919050565b6000819050919050565b6114638361142e565b61147761146f82611450565b8484546113dc565b825550505050565b600090565b61148c61147f565b61149781848461145a565b505050565b5b818110156114bb576114b0600082611484565b60018101905061149d565b5050565b601f821115611500576114d1816113aa565b6114da846113bf565b810160208510156114e9578190505b6114fd6114f5856113bf565b83018261149c565b50505b505050565b600082821c905092915050565b600061152360001984600802611505565b1980831691505092915050565b600061153c8383611512565b9150826002028217905092915050565b611555826109aa565b67ffffffffffffffff81111561156e5761156d610d30565b5b61157882546110ad565b6115838282856114bf565b600060209050601f8311600181146115b657600084156115a4578287015190505b6115ae8582611530565b865550611616565b601f1984166115c4866113aa565b60005b828110156115ec578489015182556001820191506020850194506020810190506115c7565b868310156116095784890151611605601f891682611512565b8355505b6001600288020188555050505b505050505050565b6000602082019050611633600083018461099b565b9291505056fea26469706673582212201c8053fa166c18377127c3fe609c50d02d5f1c08404b901ac9fe1e906bf1ea6064736f6c63430008130033",
  "linkReferences": {},
  "deployedLinkReferences": {}
}