{
  "_format": "hh-sol-artifact-1",
  "contractName": "DisputeModule",
  "sourceName": "contracts/DisputeModule.sol",
  "abi": [
    {
      "anonymous": false,
      "inputs": [
        {
          "indexed": true,
          "internalType": "bytes32",
          "name": "disputeId",
          "type": "bytes32"
        },
        {
          "indexed": true,
          "internalType": "bytes32",
          "name": "ipId",
          "type": "bytes32"
        },
        {
          "indexed": true,
          "internalType": "bytes32",
          "name": "licenseId",
          "type": "bytes32"
        },
        {
          "indexed": false,
          "internalType": "address",
          "name": "complainant",
          "type": "address"
        },
        {
          "indexed": false,
          "internalType": "string",
          "name": "reason",
          "type": "string"
        }
      ],
      "name": "DisputeCreated",
      "type": "event"
    },
    {
      "anonymous": false,
      "inputs": [
        {
          "indexed": true,
          "internalType": "bytes32",
          "name": "disputeId",
          "type": "bytes32"
        }
      ],
      "name": "DisputeResolved",
      "type": "event"
    },
    {
      "inputs": [
        {
          "internalType": "bytes32",
          "name": "ipId",
          "type": "bytes32"
        },
        {
          "internalType": "bytes32",
          "name": "licenseId",
          "type": "bytes32"
        },
        {
          "internalType": "string",
          "name": "reason",
          "type": "string"
        }
      ],
      "name": "createDispute",
      "outputs": [
        {
          "internalType": "bytes32",
          "name": "",
          "type": "bytes32"
        }
      ],
      "stateMutability": "nonpayable",
      "type": "function"
    },
    {
      "inputs": [
        {
          "internalType": "bytes32",
          "name": "",
          "type": "bytes32"
        }
      ],
      "name": "disputes",
      "outputs": [
        {
          "internalType": "bytes32",
          "name": "ipId",
          "type": "bytes32"
        },
        {
          "internalType": "bytes32",
          "name": "licenseId",
          "type": "bytes32"
        },
        {
          "internalType": "address",
          "name": "complainant",
          "type": "address"
        },
        {
          "internalType": "string",
          "name": "reason",
          "type": "string"
        },
        {
          "internalType": "uint256",
          "name": "timestamp",
          "type": "uint256"
        },
        {
          "internalType": "bool",
          "name": "resolved",
          "type": "bool"
        }
      ],
      "stateMutability": "view",
      "type": "function"
    },
    {
      "inputs": [
        {
          "internalType": "bytes32",
          "name": "disputeId",
          "type": "bytes32"
        }
      ],
      "name": "getDispute",
      "outputs": [
        {
          "internalType": "bytes32",
          "name": "ipId",
          "type": "bytes32"
        },
        {
          "internalType": "bytes32",
          "name": "licenseId",
          "type": "bytes32"
        },
        {
          "internalType": "address",
          "name": "complainant",
          "type": "address"
        },
        {
          "internalType": "string",
          "name": "reason",
          "type": "string"
        },
        {
          "internalType": "uint256",
          "name": "timestamp",
          "type": "uint256"
        },
        {
          "internalType": "bool",
          "name": "resolved",
          "type": "bool"
        }
      ],
      "stateMutability": "view",
      "type": "function"
    },
    {
      "inputs": [
        {
          "internalType": "address",
          "name": "user",
          "type": "address"
        }
      ],
      "name": "getUserDisputes",
      "outputs": [
        {
          "internalType": "bytes32[]",
          "name": "",
          "type": "bytes32[]"
        }
      ],
      "stateMutability": "view",
      "type": "function"
    },
    {
      "inputs": [
        {
          "internalType": "bytes32",
          "name": "disputeId",
          "type": "bytes32"
        }
      ],
      "name": "resolveDispute",
      "outputs": [],
      "stateMutability": "nonpayable",
      "type": "function"
    },
    {
      "inputs": [
        {
          "internalType": "address",
          "name": "",
          "type": "address"
        },
        {
          "internalType": "uint256",
          "name": "",
          "type": "uint256"
        }
      ],
      "name": "userDisputes",
      "outputs": [
        {
          "internalType": "bytes32",
          "name": "",
          "type": "bytes32"
        }
      ],
      "stateMutability": "view",
      "type": "function"
    }
  ],
  "bytecode": "0x608060405234801561001057600080fd5b506109a8806100206000396000f3fe608060405234801561001057600080fd5b50600436106100625760003560e01c806311be199714610067578063136ba6aa146100955780633dc04159146100a8578063462085eb146100c9578063bfb0a55b146100dc578063c8218e3e146100fc575b600080fd5b61007a6100753660046105d1565b610111565b60405161008c96959493929190610630565b60405180910390f35b61007a6100a33660046105d1565b6101de565b6100bb6100b6366004610693565b610329565b60405190815260200161008c565b6100bb6100d73660046106d3565b61035a565b6100ef6100ea366004610797565b6104b9565b60405161008c91906107b9565b61010f61010a3660046105d1565b610525565b005b6000602081905290815260409020805460018201546002830154600384018054939492936001600160a01b03909216929161014b906107fd565b80601f0160208091040260200160405190810160405280929190818152602001828054610177906107fd565b80156101c45780601f10610199576101008083540402835291602001916101c4565b820191906000526020600020905b8154815290600101906020018083116101a757829003601f168201915b50505050600483015460059093015491929160ff16905086565b6000806000606060008060008060008981526020019081526020016000206040518060c001604052908160008201548152602001600182015481526020016002820160009054906101000a90046001600160a01b03166001600160a01b03166001600160a01b0316815260200160038201805461025a906107fd565b80601f0160208091040260200160405190810160405280929190818152602001828054610286906107fd565b80156102d35780601f106102a8576101008083540402835291602001916102d3565b820191906000526020600020905b8154815290600101906020018083116102b657829003601f168201915b5050509183525050600482015460208083019190915260059092015460ff161515604091820152825191830151908301516060840151608085015160a090950151939d929c50909a509850919650945092505050565b6001602052816000526040600020818154811061034557600080fd5b90600052602060002001600091509150505481565b6000808484334260405160200161039c9493929190938452602084019290925260601b6bffffffffffffffffffffffff19166040830152605482015260740190565b60408051808303601f19018152828252805160209182012060c0840183528884528184018881523385850190815260608601898152426080880152600060a088018190528481529485905294909320855181559051600182015591516002830180546001600160a01b0319166001600160a01b03909216919091179055915191935090600382019061042e9082610886565b506080820151600482015560a0909101516005909101805460ff1916911515919091179055336000818152600160208181526040808420805493840181558452922001839055518591879184917fd173b043d240aa50dd667cfdee79b02f31000756355b2a7362e8ed8dbb140dd2916104a991908990610946565b60405180910390a4949350505050565b6001600160a01b03811660009081526001602090815260409182902080548351818402810184019094528084526060939283018282801561051957602002820191906000526020600020905b815481526020019060010190808311610505575b50505050509050919050565b60008181526020819052604090206005015460ff161561058b5760405162461bcd60e51b815260206004820152601860248201527f4469737075746520616c7265616479207265736f6c7665640000000000000000604482015260640160405180910390fd5b600081815260208190526040808220600501805460ff191660011790555182917f65e0c7182ce84cd9087c1b07dc4b65875578877b885848e4be19ee312f2c3d3191a250565b6000602082840312156105e357600080fd5b5035919050565b6000815180845260005b81811015610610576020818501810151868301820152016105f4565b506000602082860101526020601f19601f83011685010191505092915050565b86815285602082015260018060a01b038516604082015260c06060820152600061065d60c08301866105ea565b60808301949094525090151560a090910152949350505050565b80356001600160a01b038116811461068e57600080fd5b919050565b600080604083850312156106a657600080fd5b6106af83610677565b946020939093013593505050565b634e487b7160e01b600052604160045260246000fd5b6000806000606084860312156106e857600080fd5b8335925060208401359150604084013567ffffffffffffffff8082111561070e57600080fd5b818601915086601f83011261072257600080fd5b813581811115610734576107346106bd565b604051601f8201601f19908116603f0116810190838211818310171561075c5761075c6106bd565b8160405282815289602084870101111561077557600080fd5b8260208601602083013760006020848301015280955050505050509250925092565b6000602082840312156107a957600080fd5b6107b282610677565b9392505050565b6020808252825182820181905260009190848201906040850190845b818110156107f1578351835292840192918401916001016107d5565b50909695505050505050565b600181811c9082168061081157607f821691505b60208210810361083157634e487b7160e01b600052602260045260246000fd5b50919050565b601f82111561088157600081815260208120601f850160051c8101602086101561085e5750805b601f850160051c820191505b8181101561087d5782815560010161086a565b5050505b505050565b815167ffffffffffffffff8111156108a0576108a06106bd565b6108b4816108ae84546107fd565b84610837565b602080601f8311600181146108e957600084156108d15750858301515b600019600386901b1c1916600185901b17855561087d565b600085815260208120601f198616915b82811015610918578886015182559484019460019091019084016108f9565b50858210156109365787850151600019600388901b60f8161c191681555b5050505050600190811b01905550565b6001600160a01b038316815260406020820181905260009061096a908301846105ea565b94935050505056fea26469706673582212203b59743c44e73290b1fbf4de7274fa962726cf6d4b2e5f7dc10eaf461f086cd464736f6c63430008140033",
  "linkReferences": {},
  "deployedLinkReferences": {}
}