{
  "_format": "hh-sol-artifact-1",
  "contractName": "LicenseRegistry",
  "sourceName": "contracts/LicenseRegistry.sol",
  "abi": [
    {
      "inputs": [
        {
          "internalType": "address",
          "name": "_ipRegistry",
          "type": "address"
        }
      ],
      "stateMutability": "nonpayable",
      "type": "constructor"
    },
    {
      "anonymous": false,
      "inputs": [
        {
          "indexed": true,
          "internalType": "bytes32",
          "name": "licenseId",
          "type": "bytes32"
        },
        {
          "indexed": true,
          "internalType": "bytes32",
          "name": "ipId",
          "type": "bytes32"
        },
        {
          "indexed": false,
          "internalType": "address",
          "name": "licensor",
          "type": "address"
        },
        {
          "indexed": false,
          "internalType": "address",
          "name": "licensee",
          "type": "address"
        }
      ],
      "name": "LicenseCreated",
      "type": "event"
    },
    {
      "inputs": [
        {
          "internalType": "bytes32",
          "name": "ipId",
          "type": "bytes32"
        },
        {
          "internalType": "address",
          "name": "licensee",
          "type": "address"
        },
        {
          "internalType": "uint256",
          "name": "duration",
          "type": "uint256"
        },
        {
          "internalType": "string",
          "name": "terms",
          "type": "string"
        }
      ],
      "name": "createLicense",
      "outputs": [
        {
          "internalType": "bytes32",
          "name": "",
          "type": "bytes32"
        }
      ],
      "stateMutability": "nonpayable",
      "type": "function"
    },
    {
      "inputs": [
        {
          "internalType": "bytes32",
          "name": "licenseId",
          "type": "bytes32"
        }
      ],
      "name": "getLicense",
      "outputs": [
        {
          "components": [
            {
              "internalType": "bytes32",
              "name": "ipId",
              "type": "bytes32"
            },
            {
              "internalType": "address",
              "name": "licensor",
              "type": "address"
            },
            {
              "internalType": "address",
              "name": "licensee",
              "type": "address"
            },
            {
              "internalType": "uint256",
              "name": "startTime",
              "type": "uint256"
            },
            {
              "internalType": "uint256",
              "name": "endTime",
              "type": "uint256"
            },
            {
              "internalType": "string",
              "name": "terms",
              "type": "string"
            }
          ],
          "internalType": "struct LicenseRegistry.License",
          "name": "",
          "type": "tuple"
        }
      ],
      "stateMutability": "view",
      "type": "function"
    },
    {
      "inputs": [
        {
          "internalType": "address",
          "name": "licensee",
          "type": "address"
        }
      ],
      "name": "getLicenseeLicenses",
      "outputs": [
        {
          "internalType": "bytes32[]",
          "name": "",
          "type": "bytes32[]"
        }
      ],
      "stateMutability": "view",
      "type": "function"
    },
    {
      "inputs": [
        {
          "internalType": "address",
          "name": "licensor",
          "type": "address"
        }
      ],
      "name": "getLicensorLicenses",
      "outputs": [
        {
          "internalType": "bytes32[]",
          "name": "",
          "type": "bytes32[]"
        }
      ],
      "stateMutability": "view",
      "type": "function"
    },
    {
      "inputs": [],
      "name": "ipRegistry",
      "outputs": [
        {
          "internalType": "contract IPRegistry",
          "name": "",
          "type": "address"
        }
      ],
      "stateMutability": "view",
      "type": "function"
    },
    {
      "inputs": [
        {
          "internalType": "address",
          "name": "",
          "type": "address"
        },
        {
          "internalType": "uint256",
          "name": "",
          "type": "uint256"
        }
      ],
      "name": "licenseeLicenses",
      "outputs": [
        {
          "internalType": "bytes32",
          "name": "",
          "type": "bytes32"
        }
      ],
      "stateMutability": "view",
      "type": "function"
    },
    {
      "inputs": [
        {
          "internalType": "bytes32",
          "name": "",
          "type": "bytes32"
        }
      ],
      "name": "licenses",
      "outputs": [
        {
          "internalType": "bytes32",
          "name": "ipId",
          "type": "bytes32"
        },
        {
          "internalType": "address",
          "name": "licensor",
          "type": "address"
        },
        {
          "internalType": "address",
          "name": "licensee",
          "type": "address"
        },
        {
          "internalType": "uint256",
          "name": "startTime",
          "type": "uint256"
        },
        {
          "internalType": "uint256",
          "name": "endTime",
          "type": "uint256"
        },
        {
          "internalType": "string",
          "name": "terms",
          "type": "string"
        }
      ],
      "stateMutability": "view",
      "type": "function"
    },
    {
      "inputs": [
        {
          "internalType": "address",
          "name": "",
          "type": "address"
        },
        {
          "internalType": "uint256",
          "name": "",
          "type": "uint256"
        }
      ],
      "name": "licensorLicenses",
      "outputs": [
        {
          "internalType": "bytes32",
          "name": "",
          "type": "bytes32"
        }
      ],
      "stateMutability": "view",
      "type": "function"
    }
  ],
  "bytecode": "0x60806040523480156200001157600080fd5b5060405162001886380380620018868339818101604052810190620000379190620000e8565b806000806101000a81548173ffffffffffffffffffffffffffffffffffffffff021916908373ffffffffffffffffffffffffffffffffffffffff160217905550506200011a565b600080fd5b600073ffffffffffffffffffffffffffffffffffffffff82169050919050565b6000620000b08262000083565b9050919050565b620000c281620000a3565b8114620000ce57600080fd5b50565b600081519050620000e281620000b7565b92915050565b6000602082840312156200010157620001006200007e565b5b60006200011184828501620000d1565b91505092915050565b61175c806200012a6000396000f3fe608060405234801561001057600080fd5b50600436106100885760003560e01c8063825e65061161005b578063825e65061461013b578063a22ced551461016b578063bf7e47de1461019b578063cde74e51146101cb57610088565b80631810d3711461008d57806349f5e9ea146100bd57806356494681146100db578063750934541461010b575b600080fd5b6100a760048036038101906100a29190610c5c565b610200565b6040516100b49190610cee565b60405180910390f35b6100c5610592565b6040516100d29190610d68565b60405180910390f35b6100f560048036038101906100f09190610d83565b6105b6565b6040516101029190610cee565b60405180910390f35b61012560048036038101906101209190610d83565b6105e7565b6040516101329190610cee565b60405180910390f35b61015560048036038101906101509190610dc3565b610618565b6040516101629190610f25565b60405180910390f35b61018560048036038101906101809190610f47565b6107a1565b6040516101929190611023565b60405180910390f35b6101b560048036038101906101b09190610f47565b610838565b6040516101c29190611023565b60405180910390f35b6101e560048036038101906101e09190610dc3565b6108cf565b6040516101f7969594939291906110ad565b60405180910390f35b60003373ffffffffffffffffffffffffffffffffffffffff1660008054906101000a900473ffffffffffffffffffffffffffffffffffffffff1673ffffffffffffffffffffffffffffffffffffffff1663387dbdc3876040518263ffffffff1660e01b81526004016102729190610cee565b600060405180830381865afa15801561028f573d6000803e3d6000fd5b505050506040513d6000823e3d601f19601f820116820180604052508101906102b89190611239565b6000015173ffffffffffffffffffffffffffffffffffffffff1614610312576040517f08c379a0000000000000000000000000000000000000000000000000000000008152600401610309906112ce565b60405180910390fd5b60008533864260405160200161032b9493929190611378565b6040516020818303038152906040528051906020012090506040518060c001604052808781526020013373ffffffffffffffffffffffffffffffffffffffff1681526020018673ffffffffffffffffffffffffffffffffffffffff168152602001428152602001854261039e91906113f5565b815260200184815250600160008381526020019081526020016000206000820151816000015560208201518160010160006101000a81548173ffffffffffffffffffffffffffffffffffffffff021916908373ffffffffffffffffffffffffffffffffffffffff16021790555060408201518160020160006101000a81548173ffffffffffffffffffffffffffffffffffffffff021916908373ffffffffffffffffffffffffffffffffffffffff160217905550606082015181600301556080820151816004015560a082015181600501908161047b919061162b565b50905050600260008673ffffffffffffffffffffffffffffffffffffffff1673ffffffffffffffffffffffffffffffffffffffff168152602001908152602001600020819080600181540180825580915050600190039060005260206000200160009091909190915055600360003373ffffffffffffffffffffffffffffffffffffffff1673ffffffffffffffffffffffffffffffffffffffff16815260200190815260200160002081908060018154018082558091505060019003906000526020600020016000909190919091505585817fff83d8b33396d4302eb09d097bb4c3ef571f89c60fd1b1c50ab61199e789c533338860405161057e9291906116fd565b60405180910390a380915050949350505050565b60008054906101000a900473ffffffffffffffffffffffffffffffffffffffff1681565b600260205281600052604060002081815481106105d257600080fd5b90600052602060002001600091509150505481565b6003602052816000526040600020818154811061060357600080fd5b90600052602060002001600091509150505481565b6106206109d3565b600160008381526020019081526020016000206040518060c0016040529081600082015481526020016001820160009054906101000a900473ffffffffffffffffffffffffffffffffffffffff1673ffffffffffffffffffffffffffffffffffffffff1673ffffffffffffffffffffffffffffffffffffffff1681526020016002820160009054906101000a900473ffffffffffffffffffffffffffffffffffffffff1673ffffffffffffffffffffffffffffffffffffffff1673ffffffffffffffffffffffffffffffffffffffff168152602001600382015481526020016004820154815260200160058201805461071890611458565b80601f016020809104026020016040519081016040528092919081815260200182805461074490611458565b80156107915780601f1061076657610100808354040283529160200191610791565b820191906000526020600020905b81548152906001019060200180831161077457829003601f168201915b5050505050815250509050919050565b6060600360008373ffffffffffffffffffffffffffffffffffffffff1673ffffffffffffffffffffffffffffffffffffffff16815260200190815260200160002080548060200260200160405190810160405280929190818152602001828054801561082c57602002820191906000526020600020905b815481526020019060010190808311610818575b50505050509050919050565b6060600260008373ffffffffffffffffffffffffffffffffffffffff1673ffffffffffffffffffffffffffffffffffffffff1681526020019081526020016000208054806020026020016040519081016040528092919081815260200182805480156108c357602002820191906000526020600020905b8154815260200190600101908083116108af575b50505050509050919050565b60016020528060005260406000206000915090508060000154908060010160009054906101000a900473ffffffffffffffffffffffffffffffffffffffff16908060020160009054906101000a900473ffffffffffffffffffffffffffffffffffffffff169080600301549080600401549080600501805461095090611458565b80601f016020809104026020016040519081016040528092919081815260200182805461097c90611458565b80156109c95780601f1061099e576101008083540402835291602001916109c9565b820191906000526020600020905b8154815290600101906020018083116109ac57829003601f168201915b5050505050905086565b6040518060c0016040528060008019168152602001600073ffffffffffffffffffffffffffffffffffffffff168152602001600073ffffffffffffffffffffffffffffffffffffffff1681526020016000815260200160008152602001606081525090565b6000604051905090565b600080fd5b600080fd5b6000819050919050565b610a5f81610a4c565b8114610a6a57600080fd5b50565b600081359050610a7c81610a56565b92915050565b600073ffffffffffffffffffffffffffffffffffffffff82169050919050565b6000610aad82610a82565b9050919050565b610abd81610aa2565b8114610ac857600080fd5b50565b600081359050610ada81610ab4565b92915050565b6000819050919050565b610af381610ae0565b8114610afe57600080fd5b50565b600081359050610b1081610aea565b92915050565b600080fd5b600080fd5b6000601f19601f8301169050919050565b7f4e487b7100000000000000000000000000000000000000000000000000000000600052604160045260246000fd5b610b6982610b20565b810181811067ffffffffffffffff82111715610b8857610b87610b31565b5b80604052505050565b6000610b9b610a38565b9050610ba78282610b60565b919050565b600067ffffffffffffffff821115610bc757610bc6610b31565b5b610bd082610b20565b9050602081019050919050565b82818337600083830152505050565b6000610bff610bfa84610bac565b610b91565b905082815260208101848484011115610c1b57610c1a610b1b565b5b610c26848285610bdd565b509392505050565b600082601f830112610c4357610c42610b16565b5b8135610c53848260208601610bec565b91505092915050565b60008060008060808587031215610c7657610c75610a42565b5b6000610c8487828801610a6d565b9450506020610c9587828801610acb565b9350506040610ca687828801610b01565b925050606085013567ffffffffffffffff811115610cc757610cc6610a47565b5b610cd387828801610c2e565b91505092959194509250565b610ce881610a4c565b82525050565b6000602082019050610d036000830184610cdf565b92915050565b6000819050919050565b6000610d2e610d29610d2484610a82565b610d09565b610a82565b9050919050565b6000610d4082610d13565b9050919050565b6000610d5282610d35565b9050919050565b610d6281610d47565b82525050565b6000602082019050610d7d6000830184610d59565b92915050565b60008060408385031215610d9a57610d99610a42565b5b6000610da885828601610acb565b9250506020610db985828601610b01565b9150509250929050565b600060208284031215610dd957610dd8610a42565b5b6000610de784828501610a6d565b91505092915050565b610df981610a4c565b82525050565b610e0881610aa2565b82525050565b610e1781610ae0565b82525050565b600081519050919050565b600082825260208201905092915050565b60005b83811015610e57578082015181840152602081019050610e3c565b60008484015250505050565b6000610e6e82610e1d565b610e788185610e28565b9350610e88818560208601610e39565b610e9181610b20565b840191505092915050565b600060c083016000830151610eb46000860182610df0565b506020830151610ec76020860182610dff565b506040830151610eda6040860182610dff565b506060830151610eed6060860182610e0e565b506080830151610f006080860182610e0e565b5060a083015184820360a0860152610f188282610e63565b9150508091505092915050565b60006020820190508181036000830152610f3f8184610e9c565b905092915050565b600060208284031215610f5d57610f5c610a42565b5b6000610f6b84828501610acb565b91505092915050565b600081519050919050565b600082825260208201905092915050565b6000819050602082019050919050565b6000610fac8383610df0565b60208301905092915050565b6000602082019050919050565b6000610fd082610f74565b610fda8185610f7f565b9350610fe583610f90565b8060005b83811015611016578151610ffd8882610fa0565b975061100883610fb8565b925050600181019050610fe9565b5085935050505092915050565b6000602082019050818103600083015261103d8184610fc5565b905092915050565b61104e81610aa2565b82525050565b61105d81610ae0565b82525050565b600082825260208201905092915050565b600061107f82610e1d565b6110898185611063565b9350611099818560208601610e39565b6110a281610b20565b840191505092915050565b600060c0820190506110c26000830189610cdf565b6110cf6020830188611045565b6110dc6040830187611045565b6110e96060830186611054565b6110f66080830185611054565b81810360a08301526111088184611074565b9050979650505050505050565b600080fd5b600080fd5b60008151905061112e81610ab4565b92915050565b600061114761114284610bac565b610b91565b90508281526020810184848401111561116357611162610b1b565b5b61116e848285610e39565b509392505050565b600082601f83011261118b5761118a610b16565b5b815161119b848260208601611134565b91505092915050565b6000815190506111b381610aea565b92915050565b6000606082840312156111cf576111ce611115565b5b6111d96060610b91565b905060006111e98482850161111f565b600083015250602082015167ffffffffffffffff81111561120d5761120c61111a565b5b61121984828501611176565b602083015250604061122d848285016111a4565b60408301525092915050565b60006020828403121561124f5761124e610a42565b5b600082015167ffffffffffffffff81111561126d5761126c610a47565b5b611279848285016111b9565b91505092915050565b7f4e6f74204950206f776e65720000000000000000000000000000000000000000600082015250565b60006112b8600c83611063565b91506112c382611282565b602082019050919050565b600060208201905081810360008301526112e7816112ab565b9050919050565b6000819050919050565b61130961130482610a4c565b6112ee565b82525050565b60008160601b9050919050565b60006113278261130f565b9050919050565b60006113398261131c565b9050919050565b61135161134c82610aa2565b61132e565b82525050565b6000819050919050565b61137261136d82610ae0565b611357565b82525050565b600061138482876112f8565b6020820191506113948286611340565b6014820191506113a48285611340565b6014820191506113b48284611361565b60208201915081905095945050505050565b7f4e487b7100000000000000000000000000000000000000000000000000000000600052601160045260246000fd5b600061140082610ae0565b915061140b83610ae0565b9250828201905080821115611423576114226113c6565b5b92915050565b7f4e487b7100000000000000000000000000000000000000000000000000000000600052602260045260246000fd5b6000600282049050600182168061147057607f821691505b60208210810361148357611482611429565b5b50919050565b60008190508160005260206000209050919050565b60006020601f8301049050919050565b600082821b905092915050565b6000600883026114eb7fffffffffffffffffffffffffffffffffffffffffffffffffffffffffffffffff826114ae565b6114f586836114ae565b95508019841693508086168417925050509392505050565b600061152861152361151e84610ae0565b610d09565b610ae0565b9050919050565b6000819050919050565b6115428361150d565b61155661154e8261152f565b8484546114bb565b825550505050565b600090565b61156b61155e565b611576818484611539565b505050565b5b8181101561159a5761158f600082611563565b60018101905061157c565b5050565b601f8211156115df576115b081611489565b6115b98461149e565b810160208510156115c8578190505b6115dc6115d48561149e565b83018261157b565b50505b505050565b600082821c905092915050565b6000611602600019846008026115e4565b1980831691505092915050565b600061161b83836115f1565b9150826002028217905092915050565b61163482610e1d565b67ffffffffffffffff81111561164d5761164c610b31565b5b6116578254611458565b61166282828561159e565b600060209050601f8311600181146116955760008415611683578287015190505b61168d858261160f565b8655506116f5565b601f1984166116a386611489565b60005b828110156116cb578489015182556001820191506020850194506020810190506116a6565b868310156116e857848901516116e4601f8916826115f1565b8355505b6001600288020188555050505b505050505050565b60006040820190506117126000830185611045565b61171f6020830184611045565b939250505056fea264697066735822122018893661a386bf7e23d8f76ad56b5f42c5327f881ba2a73dba0c67dcb5ade08464736f6c63430008130033",
  "linkReferences": {},
  "deployedLinkReferences": {}
}