{
  "_format": "hh-sol-artifact-1",
  "contractName": "IPRegistry",
  "sourceName": "contracts/IPRegistry.sol",
  "abi": [
    {
      "inputs": [],
      "stateMutability": "nonpayable",
      "type": "constructor"
    },
    {
      "anonymous": false,
      "inputs": [
        {
          "indexed": true,
          "internalType": "bytes32",
          "name": "ipId",
          "type": "bytes32"
        },
        {
          "indexed": true,
          "internalType": "address",
          "name": "owner",
          "type": "address"
        },
        {
          "indexed": false,
          "internalType": "string",
          "name": "metadata",
          "type": "string"
        }
      ],
      "name": "IPRegistered",
      "type": "event"
    },
    {
      "anonymous": false,
      "inputs": [
        {
          "indexed": true,
          "internalType": "address",
          "name": "previousOwner",
          "type": "address"
        },
        {
          "indexed": true,
          "internalType": "address",
          "name": "newOwner",
          "type": "address"
        }
      ],
      "name": "OwnershipTransferred",
      "type": "event"
    },
    {
      "inputs": [
        {
          "internalType": "bytes32",
          "name": "ipId",
          "type": "bytes32"
        }
      ],
      "name": "getIP",
      "outputs": [
        {
          "internalType": "address",
          "name": "owner",
          "type": "address"
        },
        {
          "internalType": "string",
          "name": "metadata",
          "type": "string"
        },
        {
          "internalType": "uint256",
          "name": "timestamp",
          "type": "uint256"
        }
      ],
      "stateMutability": "view",
      "type": "function"
    },
    {
      "inputs": [
        {
          "internalType": "address",
          "name": "owner",
          "type": "address"
        }
      ],
      "name": "getOwnerIPs",
      "outputs": [
        {
          "internalType": "bytes32[]",
          "name": "",
          "type": "bytes32[]"
        }
      ],
      "stateMutability": "view",
      "type": "function"
    },
    {
      "inputs": [
        {
          "internalType": "bytes32",
          "name": "",
          "type": "bytes32"
        }
      ],
      "name": "ips",
      "outputs": [
        {
          "internalType": "address",
          "name": "owner",
          "type": "address"
        },
        {
          "internalType": "string",
          "name": "metadata",
          "type": "string"
        },
        {
          "internalType": "uint256",
          "name": "timestamp",
          "type": "uint256"
        }
      ],
      "stateMutability": "view",
      "type": "function"
    },
    {
      "inputs": [],
      "name": "owner",
      "outputs": [
        {
          "internalType": "address",
          "name": "",
          "type": "address"
        }
      ],
      "stateMutability": "view",
      "type": "function"
    },
    {
      "inputs": [
        {
          "internalType": "address",
          "name": "",
          "type": "address"
        },
        {
          "internalType": "uint256",
          "name": "",
          "type": "uint256"
        }
      ],
      "name": "ownerIPs",
      "outputs": [
        {
          "internalType": "bytes32",
          "name": "",
          "type": "bytes32"
        }
      ],
      "stateMutability": "view",
      "type": "function"
    },
    {
      "inputs": [
        {
          "internalType": "string",
          "name": "metadata",
          "type": "string"
        }
      ],
      "name": "registerIP",
      "outputs": [
        {
          "internalType": "bytes32",
          "name": "",
          "type": "bytes32"
        }
      ],
      "stateMutability": "nonpayable",
      "type": "function"
    },
    {
      "inputs": [],
      "name": "renounceOwnership",
      "outputs": [],
      "stateMutability": "nonpayable",
      "type": "function"
    },
    {
      "inputs": [
        {
          "internalType": "address",
          "name": "newOwner",
          "type": "address"
        }
      ],
      "name": "transferOwnership",
      "outputs": [],
      "stateMutability": "nonpayable",
      "type": "function"
    }
  ],
  "bytecode": "0x608060405234801561001057600080fd5b5061001a3361001f565b61006f565b600080546001600160a01b038381166001600160a01b0319831681178455604051919092169283917f8be0079c531659141344cd1fd0a4f28419497f9722a3daafe3b4186f6b6457e09190a35050565b61099d8061007e6000396000f3fe608060405234801561001057600080fd5b50600436106100885760003560e01c8063715018a61161005b578063715018a6146101085780638da5cb5b14610112578063c7f193551461012d578063f2fde38b1461014057600080fd5b806324a8c63f1461008d5780632816fb0b146100b3578063380ef1ed146100d3578063387dbdc3146100f5575b600080fd5b6100a061009b3660046105d8565b610153565b6040519081526020015b60405180910390f35b6100c66100c1366004610602565b610184565b6040516100aa9190610624565b6100e66100e1366004610668565b6101f0565b6040516100aa939291906106d1565b6100e6610103366004610668565b6102a6565b610110610390565b005b6000546040516001600160a01b0390911681526020016100aa565b6100a061013b36600461071b565b6103a4565b61011061014e366004610602565b610494565b6002602052816000526040600020818154811061016f57600080fd5b90600052602060002001600091509150505481565b6001600160a01b0381166000908152600260209081526040918290208054835181840281018401909452808452606093928301828280156101e457602002820191906000526020600020905b8154815260200190600101908083116101d0575b50505050509050919050565b6001602081905260009182526040909120805491810180546001600160a01b039093169261021d906107cc565b80601f0160208091040260200160405190810160405280929190818152602001828054610249906107cc565b80156102965780601f1061026b57610100808354040283529160200191610296565b820191906000526020600020905b81548152906001019060200180831161027957829003601f168201915b5050505050908060020154905083565b60008181526001602081815260408084208151606081810190935281546001600160a01b031681529381018054929486948594919392908401916102e9906107cc565b80601f0160208091040260200160405190810160405280929190818152602001828054610315906107cc565b80156103625780601f1061033757610100808354040283529160200191610362565b820191906000526020600020905b81548152906001019060200180831161034557829003601f168201915b5050509183525050600291909101546020918201528151908201516040909201519097919650945092505050565b610398610512565b6103a2600061056c565b565b6000803342846040516020016103bc93929190610806565b60408051808303601f1901815282825280516020918201206060840183523384528184018781524285850152600082815260019384905293909320845181546001600160a01b0319166001600160a01b039091161781559251909450908201906104269082610894565b5060409182015160029182015533600081815260209283528381208054600181018255908252929020909101839055905182907f31aca62f848242363e449c813e947cd2a51d8d50e1b70209ffbdbff88d32af5d90610486908790610954565b60405180910390a392915050565b61049c610512565b6001600160a01b0381166105065760405162461bcd60e51b815260206004820152602660248201527f4f776e61626c653a206e6577206f776e657220697320746865207a65726f206160448201526564647265737360d01b60648201526084015b60405180910390fd5b61050f8161056c565b50565b6000546001600160a01b031633146103a25760405162461bcd60e51b815260206004820181905260248201527f4f776e61626c653a2063616c6c6572206973206e6f7420746865206f776e657260448201526064016104fd565b600080546001600160a01b038381166001600160a01b0319831681178455604051919092169283917f8be0079c531659141344cd1fd0a4f28419497f9722a3daafe3b4186f6b6457e09190a35050565b80356001600160a01b03811681146105d357600080fd5b919050565b600080604083850312156105eb57600080fd5b6105f4836105bc565b946020939093013593505050565b60006020828403121561061457600080fd5b61061d826105bc565b9392505050565b6020808252825182820181905260009190848201906040850190845b8181101561065c57835183529284019291840191600101610640565b50909695505050505050565b60006020828403121561067a57600080fd5b5035919050565b60005b8381101561069c578181015183820152602001610684565b50506000910152565b600081518084526106bd816020860160208601610681565b601f01601f19169290920160200192915050565b6001600160a01b03841681526060602082018190526000906106f5908301856106a5565b9050826040830152949350505050565b634e487b7160e01b600052604160045260246000fd5b60006020828403121561072d57600080fd5b813567ffffffffffffffff8082111561074557600080fd5b818401915084601f83011261075957600080fd5b81358181111561076b5761076b610705565b604051601f8201601f19908116603f0116810190838211818310171561079357610793610705565b816040528281528760208487010111156107ac57600080fd5b826020860160208301376000928101602001929092525095945050505050565b600181811c908216806107e057607f821691505b60208210810361080057634e487b7160e01b600052602260045260246000fd5b50919050565b6bffffffffffffffffffffffff198460601b16815282601482015260008251610836816034850160208701610681565b91909101603401949350505050565b601f82111561088f57600081815260208120601f850160051c8101602086101561086c5750805b601f850160051c820191505b8181101561088b57828155600101610878565b5050505b505050565b815167ffffffffffffffff8111156108ae576108ae610705565b6108c2816108bc84546107cc565b84610845565b602080601f8311600181146108f757600084156108df5750858301515b600019600386901b1c1916600185901b17855561088b565b600085815260208120601f198616915b8281101561092657888601518255948401946001909101908401610907565b50858210156109445787850151600019600388901b60f8161c191681555b5050505050600190811b01905550565b60208152600061061d60208301846106a556fea264697066735822122094173f11affc99ae5f350d8e35eb129e0cbce48240c259fee11911d836e1ad3164736f6c63430008140033",
  "linkReferences": {},
  "deployedLinkReferences": {}
}